:020000040800F2
:10000000780600208901000891010008910100088C
:100010009101000891010008910100080000000012
:100020000000000000000000000000009101000836
:1000300091010008000000009101000891010008F2
:100040009101000891010008910100089101000848
:100050009101000891010008910100089101000838
:100060009101000891010008910100089101000828
:100070009101000891010008910100089101000818
:100080009101000891010008910100089101000808
:1000900091010008910100089101000891010008F8
:1000A00091010008910100089101000891010008E8
:1000B00091010008910100089101000891010008D8
:1000C00091010008910100089101000891010008C8
:1000D00091010008910100089101000891010008B8
:1000E00091010008910100089101000800F002F858
:1000F00000F03AF80AA090E8000C82448344AAF188
:100100000107DA4501D100F02FF8AFF2090EBAE885
:100110000F0013F0010F18BFFB1A43F0010318473B
:10012000680E0000880E0000103A24BF78C878C11D
:10013000FAD8520724BF30C830C144BF04680C60ED
:10014000704700000023002400250026103A28BF35
:1001500078C1FBD8520728BF30C148BF0B60704739
:100160001FB51FBD10B510BD00F025F81146FFF7F3
:10017000F7FF00F0CFFE00F043F803B4FFF7F2FF03
:1001800003BC00F04BF8000000F074FCFFF7AEBFBA
:10019000FEE7000002480349034A044B7047000091
:1001A00078000020780600207802002078020020E5
:1001B000704770477047754600F02CF8AE46050052
:1001C0006946534620F00700854618B020B5FFF772
:1001D000E1FFBDE820404FF000064FF000074FF070
:1001E00000084FF0000B21F00701AC46ACE8C00955
:1001F000ACE8C009ACE8C009ACE8C0098D4670475E
:1002000010B50446AFF300802046BDE81040FFF76C
:10021000B4BF0000004870471800002001491820B2
:10022000ABBEFEE7260002007047000001480068F0
:1002300080B27047240400400F48C06940F00200BB
:100240000D49C8610D4800680D49B0FBF1F0401E32
:1002500080B20C4908604FF6FF70091D086000204D
:100260000849091F0860012006491439086005493A
:100270002839086070470000001002401400002078
:1002800040420F002804004000B5034603E04FF44D
:100290007A7000F005F8181EA3F10103F7D100BD34
:1002A00000B50146FFF7C2FF024600BFFFF7BEFFE1
:1002B000801A80B28842F9DB00BD70B5034614464F
:1002C000082903DA18468D062A0E04E0181DA1F14C
:1002D0000805AD062A0E05680F269640B543056051
:1002E000056804F00F0696403543056070BD024670
:1002F000906801238B40184008B10120704700200E
:10030000FCE701228A404261704701228A40026173
:100310007047000010B50C48806940F004000A499D
:10032000886108220C210948FFF7C7FF0C21074804
:10033000FFF7EBFF08220B210448FFF7BEFF0B215C
:100340000248FFF7E2FF10BD001002400008014024
:1003500010B50C21014800F003F810BD0008014061
:100360002DE9F04106460F46002500240EE03946EF
:100370003046FFF7BCFF8046B8F1000F01D1681C82
:10038000C5B20320FFF780FF601CC4B2032CEEDB74
:10039000022D02DB0120BDE8F0810020FBE7000018
:1003A00010B50B210148FFF7DBFF10BD000801402D
:1003B00000200149087070470800002010B504466D
:1003C0001221204600F074F830B112224FF41B7154
:1003D0004FF4A07000F027F810BD10B5044606E0F9
:1003E0000A20FFF751FF0A2000F0C4F90A3C0A2C4A
:1003F000F6D22CB12046FFF747FFA0B200F0BAF9C1
:1004000010BD10B5044620881C2804DA4FF41B7078
:1004100000F0D2F903E04FF42F7000F0CDF9232063
:10042000FFF7DBFF10BD2DE9FC4104460E461746E1
:1004300025E0684600F0B4F83946684600F038F820
:1004400038B900F00FFB5020FFF7C7FF0020BDE8D0
:10045000FC81282C01DD282000E02046054630469E
:1004600000F0AAF92846FFF7B8FF00F0FBFAAC420B
:1004700002DD1420FFF7B1FF601B84B200BF002C27
:10048000D7D100F0EFFA5020FFF7A7FF0120DEE7F9
:1004900010B500F0E7FA0020034908704FF4967099
:1004A0000249088010BD0000080000200000002064
:1004B0000246907820B11088884201DD0120704703
:1004C0000020FCE710B5044600F0CCFA7820FFF7D6
:1004D00084FF2046FFF772FF4FF443724FF4D2714E
:1004E0004FF4347000F01BF800F0BCFA6420FFF702
:1004F00074FF012000F0B2F800F001F810BD1CB547
:10050000684600F04DF812216846FFF7D1FF28B188
:1005100012224FF42F71DC20FFF785FF1CBD2DE95F
:10052000F04104460D46164615E0DC2C01DDDC20CA
:1005300000E0204607463146284600F0B7F9384625
:10054000FFF74BFF00F08EFAE01B84B214B11420C9
:10055000FFF743FF00BF002CE7D1BDE8F0812DE994
:10056000F04104460D46164615E0DC2C01DDDC208A
:1005700000E0204607463146284600F0AAF93846F2
:10058000FFF72BFF00F06EFAE01B84B214B11420C9
:10059000FFF723FF00BF002CE7D1BDE8F08100008A
:1005A0001CB5044600F00EFCADF8000000F004FCA1
:1005B0008DF80200FFF7CCFE8DF80300FFF7F0FE88
:1005C0008DF804000A4800990160BDF8041081808C
:1005D00008480088B0F5967F04D300F02BF800207F
:1005E0000449088000982060BDF80400A0801CBD6C
:1005F000020000200000002010B5044600F032FA8E
:100600007820FFF7EAFE2046FFF7D8FE4FF443724A
:100610004FF4D2714FF43470FFF7A1FF00F022FACB
:100620006420FFF7DAFE022000F018F8FFF767FFFA
:1006300010BD00007CB500F0CFF8044600F0C6F80D
:100640000546054ECDE900043379F278B17830885B
:1006500000F07EFA7CBD0000020000200149087015
:1006600070470000080000201CB56846FFF798FF9F
:1006700012216846FFF71CFF04469DF8020038B9B6
:1006800000F0F0F9FFF794FE6420FFF7A6FE1CBD12
:100690002148007848B3684600F05AF838B1FFF7AF
:1006A00087FE00F0DFF91420FFF797FE1CE01A48E0
:1006B000007801280CD14FF443724FF4D271DC2042
:1006C000FFF72DFF00F0CEF91420FFF786FE0BE0B8
:1006D0004FF443724FF4D271DC20FFF740FF00F07B
:1006E000C1F91420FFF779FED1E79DF8030018B98E
:1006F0006846FFF7E7FE0DE01CB16846FFF781FE94
:1007000008E09DF8040018B96846FFF775FF01E09E
:1007100000F004F800BFBAE70800002010B500F0B0
:10072000A1F97820FFF759FE40F28A2000F090F9F5
:1007300040F2DC50FFF751FE00F094F97820FFF70B
:100740004CFE0120FFF78AFFFFF7D9FE10BD000025
:10075000014607480078012801D1C878704704484D
:100760000078022801D10879F8E70120F6E70000B7
:100770000800002010B504460748008820440649B8
:10078000088008460088B0F5967F04D3FFF752FF33
:1007900000200149088010BD0000002070B504460B
:1007A0000D4666190CB9002070BD002E00DA002637
:1007B000B0B200F085F8F7E710B5044620B200F0BB
:1007C00093F820B200F0EAF810BD00000148B0F93B
:1007D000000070470A0000200148B0F9000070478F
:1007E0000C00002010B52C48806940F00D002A490B
:1007F00088610846C06940F00100C86103220621F3
:100800002648FFF75AFD032207212448FFF755FD2C
:10081000032208212148FFF750FD032209211F4828
:10082000FFF74BFD0B2201211D48FFF746FD0B2270
:1008300002211B48FFF741FD1A4800681A49B0FB26
:10084000F1F0401E80B20906886240F2E730C862CB
:100850000846806920F4E04088610846806940F4D9
:10086000D04088610846C06920F07000C861084621
:10087000C06940F06800C8610846006A40F48870AA
:10088000086200208863C8630120486181200860F5
:1008900000F0E8F810BD000000100240000C01401C
:1008A000000801401400002040420F0070B50446CB
:1008B0000D4620B200F018F828B200F06FF870BDB5
:1008C0000146B1F57A7F02DD4FF47A707047084631
:1008D000FCE770B504460D4628B200F005F820B2DA
:1008E00000F05CF870BD000010B50446002C09DD76
:1008F000012000F023F8A0B200F044F800B20E4945
:10090000088017E0002C0CDA4FF0FF3000F016F8EA
:10091000614288B200F036F8404200B206490880D1
:1009200008E0002000F00AF8002000F02BF800207A
:100930000149088010BD00000A00002010B50446DF
:10094000002C08DD06210E48FFF7DFFC07210C48CC
:10095000FFF7D7FC12E0002C08DA06210848FFF761
:10096000D0FC07210648FFF7D0FC07E00621044829
:10097000FFF7C7FC07210248FFF7C3FC10BD0000CA
:10098000000C014070B5054600212846FFF706FF20
:1009900004464FF08040C463204670BD10B5044645
:1009A000002C09DD012000F023F8A0B200F044F88B
:1009B00000B20E49088017E0002C0CDA4FF0FF302F
:1009C00000F016F8614288B200F036F8404200B2FA
:1009D0000649088008E0002000F00AF8002000F036
:1009E0002BF800200149088010BD00000C000020F9
:1009F00010B50446002C08DD08210E48FFF785FCE1
:100A000009210C48FFF77DFC12E0002C08DA0821D0
:100A10000848FFF776FC09210648FFF776FC07E057
:100A200008210448FFF76DFC09210248FFF769FC23
:100A300010BD0000000C014070B50546002128469D
:100A4000FFF7ACFE04464FF080408463204670BD43
:100A500010B50446604200B2FFF746FF20B2FFF730
:100A60009DFF10BD10B50020FFF73EFF0020FFF7EF
:100A700095FF10BD1148006840F001000F49086063
:100A800000BF0E48006800F002000028F9D00B48B3
:100A9000406820F00300094948600846806940F03A
:100AA000010088610648406820F0E0600449486021
:100AB0000846406840F000704860704700100240EF
:100AC0000000014070B504461648806944F20501F3
:100AD0000843144988610B2209211348FFF7EDFBF5
:100AE00004220A211048FFF7E8FB0CB94FF4E13467
:100AF0000E48006800EB5400B0FBF4F50C480560AC
:100B00000C200B49091D08600020091D0860091D03
:100B100008600748001D006840F400500449091DA2
:100B2000086070BD00100240000801401400002061
:100B30000838014000BF0549096801F0800100291B
:100B4000F9D00249091D08607047000000380140D3
:100B50002DE9F04707460C4615461E46DDE9088993
:100B60001AA000F076F834B1384600F07EF818A0EC
:100B700000F06FF802E019A000F06BF800F09CF8AC
:100B80001AA000F066F80DB11AA100E01BA10846FA
:100B900000F05FF81BA000F05CF80EB115A100E0BA
:100BA00016A1084600F055F818A000F052F840468B
:100BB00000F036F817A000F04CF8484600F030F886
:100BC00016A000F046F8BDE8F087000055533D0040
:100BD000636D2C55535F4F4B3D310000494E5641DC
:100BE0004C49442C55535F4F4B3D30002C49525FCC
:100BF0004C3D0000424C4F434B000000434C4541EC
:100C0000520000002C49525F523D00002C50574DBD
:100C10005F4C3D002C50574D5F523D000D0A0000C7
:100C200010B50446002C06DD2B20FFF783FFA0B291
:100C300000F01BF80CE0002C07DA2D20FFF77AFFFC
:100C4000614288B200F011F802E03020FFF772FF35
:100C500010BD00B5024603E012F8010BFFF76AFF72
:100C600012B110780028F7D100BD1CB50246002350
:100C70001AB93020FFF75EFF1CBD0DE00A20B2FB61
:100C8000F0F100FB1120303019465C1C63B20DF806
:100C900001000A20B2FBF0F2002A01DD062BEDDB99
:100CA00006E0591E49B20B461DF80100FFF742FF4E
:100CB000002BF6DC00BFDFE710B513A0FFF7C9FF7C
:100CC00000F074F8052818D2DFE800F003070B0FD6
:100CD000130010A0FFF7BDFF13E010A0FFF7B9FF4E
:100CE0000FE011A0FFF7B5FF0BE012A0FFF7B1FF77
:100CF00007E014A0FFF7ADFF03E014A0FFF7A9FF82
:100D000000BF00BF10BD00002C55535F4552523D3F
:100D1000000000004E4F4E450000000049444C4585
:100D20005F48494748000000574149545F524953C2
:100D3000450000004543484F5F535455434B5F48BF
:100D40004947480052414E4745000000554E4B4E22
:100D50004F574E0010B51048806940F008000E490A
:100D6000886103220E210D48FFF7A7FA08220F2100
:100D70000A48FFF7A2FA0E210848FFF7C2FA0F212E
:100D80000648FFF7BEFA00200549087005490870BB
:100D90000549087010BD000000100240000C014021
:100DA0000E0000200F0000201000002001480078F5
:100DB000704700000F0000200148007870470000D5
:100DC0000E00002010B500F01DF80446022C0ADBCE
:100DD000B4F5967F07DC0120084908700020084917
:100DE0000870204610BD00200449087004480078AF
:100DF00010B90420024908700020F3E70E0000201B
:100E00000F00002070B500F071F84FF47A710020E7
:100E100000F052F820B9012023490870002070BD6D
:100E2000FFF704FA214908800120214908700E21AA
:100E30002048FFF766FA0220FFF732FA0E211D481C
:100E4000FFF763FA0C20FFF72BFA0E211948FFF782
:100E500058FA47F23051012000F02EF820B9022054
:100E6000114908700020DAE7FFF7E0F904460CE0CA
:100E7000FFF7DCF9001B80B247F23051884204DDF5
:100E80000320094908700020C9E70F210948FFF72E
:100E90002EFA0128ECD0FFF7C9F9001B85B23A20E1
:100EA000B5FBF0F0BBE700000F00002012000020AF
:100EB00010000020000C014070B504460D46FFF7FD
:100EC000B5F9064607E0FFF7B1F9801B80B2A842EA
:100ED00001DB002070BD0F210348FFF708FAA04294
:100EE000F1D10120F6E70000000C014010B50748E1
:100EF000007850B100BFFFF799F905490988401AF9
:100F000080B24EF660218842F5DB10BD1000002053
:100F100012000020FFF790F9FFF764FCFFF71AFFBB
:100F2000FFF7F8F94FF4E130FFF7CCFD06A0FFF72B
:100F300090FEFFF7ADFA4FF4FA70FFF7A5F901E064
:100F4000FFF792FBFCE700004D617A65526F626F1C
:100F500074207374617475733A2055532C20555363
:100F60005F4F4B2C2055535F4552522C2049525F06
:100F70004C2C2049525F522C2050574D5F4C2C2056
:100F800050574D5F520D0A00A80F000800000020C6
:100F90001800000028010008C00F000818000020F9
:100FA000600600004401000800000000000000008E
:100FB00000000000000000000000000000127A00A5
:040000050800018965
:00000001FF
