:020000040800F2
:100000008006002089010008910100089101000884
:100010009101000891010008910100080000000012
:100020000000000000000000000000009101000836
:1000300091010008000000009101000891010008F2
:100040009101000891010008910100089101000848
:100050009101000891010008910100089101000838
:100060009101000891010008910100089101000828
:100070009101000891010008910100089101000818
:100080009101000891010008910100089101000808
:1000900091010008910100089101000891010008F8
:1000A00091010008910100089101000891010008E8
:1000B00091010008910100089101000891010008D8
:1000C00091010008910100089101000891010008C8
:1000D00091010008910100089101000891010008B8
:1000E00091010008910100089101000800F002F858
:1000F00000F03AF80AA090E8000C82448344AAF188
:100100000107DA4501D100F02FF8AFF2090EBAE885
:100110000F0013F0010F18BFFB1A43F0010318473B
:10012000C40D0000E40D0000103A24BF78C878C167
:10013000FAD8520724BF30C830C144BF04680C60ED
:10014000704700000023002400250026103A28BF35
:1001500078C1FBD8520728BF30C148BF0B60704739
:100160001FB51FBD10B510BD00F07DFE1146FFF795
:10017000F7FF00F084F800F09BFE03B4FFF7F2FFF6
:1001800003BC00F0A3FE000000F08EFCFFF7AEBF42
:10019000FEE7000002480349034A044B7047000091
:1001A00080000020800600208002002080020020C5
:1001B0001CB54FF4E17840F2DC544FF4FA754FF47B
:1001C0007A794FF40C774FF46176684600F0A8F91D
:1001D00036A000F05DF9404600F020FC00F05DF92B
:1001E000204600F000F935A000F052F900F0B2FB13
:1001F00000F053F9284600F0F6F833A000F048F973
:10020000404600F014FC00F048F9484600F0EBF8D6
:100210002AA000F03DF900F09DFB00F03EF92846D1
:1002200000F0E1F82CA000F033F93946B42000F0DA
:100230001DFC00F032F9304600F0D5F81FA000F0A8
:1002400027F900F087FB00F028F9284600F0CBF8EA
:1002500024A000F01DF93946B42000F010FC00F095
:100260001CF9304600F0BFF814A000F011F900F0BE
:1002700071FB00F012F9204600F0B5F8A5E700F098
:1002800083F800F06FFB00F064FD00F0C1F84FF45C
:10029000E13000F073FC16A000F09DFC00F035F991
:1002A0004FF4FA7000F09FF8FFF782FF5445535463
:1002B0005F464F525741524400000000544553548A
:1002C0005F53544F50000000544553545F42414324
:1002D0004B57415244000000544553545F4C45462F
:1002E00054000000544553545F524947485400009D
:1002F0004D617A65526F626F7420737461747573A7
:100300003A2055532C2055535F4F4B2C2049525FB8
:100310004C2C2049525F522C2050574D5F4C2C20C2
:1003200050574D5F520D0A0010B5082902D28906B8
:10033000090E03E0001D08398906090E03680F2421
:100340008C40A3430360036802F00F028A4013430A
:10035000036010BD01238B40002A01D00361704768
:100360004361704701228A400261704701228A403E
:1003700042617047806801228A40104201D001200A
:1003800070470020704700001D48C16941F002011C
:10039000C1611C481C490068B0FBF1F01B49401EBC
:1003A00080B20860091D4FF6FF70086017490020F1
:1003B000091F0860154901201439086013492839BC
:1003C000086070471148001F006880B2704700B590
:1003D0000246FFF7F7FF0146FFF7F4FF401A80B22D
:1003E0009042F9D300BD10B503464FF47A7402E091
:1003F0002046FFF7ECFF5B1E581CF9D110BD000032
:10040000001002401400002040420F002804004069
:1004100010B51D48816941F0040181611B4C08221F
:100420000C212046FFF780FF0C212046FFF79AFFA2
:1004300008220B212046FFF777FF2046BDE8104039
:100440000B21FFF78FBF2DE9F04106460F4600252F
:10045000002439463046FFF78DFF08B96D1CEDB218
:100460000320FFF7C0FF641CE4B2032CF1D3022D7C
:1004700002D30120BDE8F0810020FBE70C210348F6
:10048000E1E70B210148DEE70010024000080140CF
:10049000002801D0A149486070473EB500F0BAFA83
:1004A000044600F0B3FA9D494968CDE90141009046
:1004B0009A4808300379C2788178008800F0A3FB5D
:1004C0003EBD10B5954C2188084480B22080B0F51F
:1004D000967F03D3FFF7E1FF0020208010BD10B509
:1004E000044606E00A20FFF77EFF0A20FFF7E9FF37
:1004F0000A3C0A2CF6D2002C06D02046FFF773FFE8
:10050000A0B2BDE81040DCE710BD10B584A0FFF735
:10051000BFFF00F01FFA81494FF49670088010BDAC
:100520007CB5054600F07AFCADF8000000F084FCD4
:100530008DF80200FFF7A2FF8DF80300FFF7A1FF7F
:100540008DF80400754C0098A060BDF80460A68189
:100550002088B0F5967F03D3FFF79FFF002020800F
:1005600000982860AE807CBD10B504466EA0FFF7F1
:100570008FFF4FF4487000F051FA2046FFF7AFFFAD
:1005800067A0FFF785FF00F0E5F9BDE810405020B7
:10059000A5E78178002904D000880A2801D9A02085
:1005A000E2E770471CB56846FFF7BAFF9DF8020006
:1005B000002806D0BDF80000122802D9DC20FFF781
:1005C000D3FF1CBD10B504465BA0FFF761FF00F030
:1005D000C1F97820FFF783FF2046FFF7DAFF5BA021
:1005E000FFF756FF4FF448714FF4167000F047FACA
:1005F00040F28A20FFF773FF57A0FFF749FF00F092
:10060000A9F96420FFF76BFFBDE81040CAE710B5F9
:10061000044656A0FFF73CFF00F09CF97820FFF756
:100620005EFF2046FFF7B5FF55A0FFF731FF4FF4FF
:1006300048714FF4167000F019FA40F28A20FFF763
:100640004EFF52A0FFF724FF00F084F96420FFF76B
:1006500046FFBDE81040A5E710B550A0FFF718FF12
:1006600000F078F97820FFF73AFF51A0FFF710FF6C
:100670004FF448714FF4167000F0F8F940F246500C
:10068000FFF72DFF4DA0FFF703FF00F063F978207F
:10069000FFF725FFBDE8104084E71CB56846FFF76B
:1006A0003FFF9DF8020028B1BDF80010122901D9C2
:1006B000012100E0002178B19DF80300A8B119B331
:1006C000BDF800001C2814D240A0FFF7E1FE4FF453
:1006D000347000F0A3F913E040A0FFF7D9FE00F05A
:1006E00039F96420FFF7FBFE1CBD6846FFF78FFF5A
:1006F0001CBD3EA0FFF7CCFE4FF4487000F08EF911
:100700002320FFF7ECFE1CBD9DF8040010B1FFF79D
:10071000A3FF1CBD6846FFF755FF1CBD000000206D
:1007200053544F5000000000464F52574152445F0F
:10073000535445500000000053544F505F4245460B
:100740004F52455F524947485400000052494748BC
:10075000545F5455524E000053544F505F4146541D
:1007600045525F52494748540000000053544F50CF
:100770005F4245464F52455F4C45465400000000DD
:100780004C4546545F5455524E00000053544F5050
:100790005F41465445525F4C4546540053544F50B8
:1007A0005F4245464F52455F4241434B00000000C7
:1007B0005455524E5F4241434B00000053544F503A
:1007C0005F41465445525F4241434B00464F5257AA
:1007D0004152445F534C4F570000000055535F4651
:1007E00041554C545F53544F50000000464F5257F0
:1007F000415244004FF47A71884200D9084670474C
:100800000144002804D0002900DA002188B2F1E771
:100810000020704710B50021FFF7F2FF4FF0804134
:10082000C86310BD10B50021FFF7EAFF4FF080410B
:10083000886310BD10B5964C00280ADD4FF0060104
:100840002046FFF78FFD2046BDE810400721FFF747
:100850008DBD0ADA4FF006012046FFF787FD2046DE
:10086000BDE810400721FFF77DBD06212046FFF7B8
:100870007DFD2046BDE810400721FFF777BD10B58C
:10088000834C00280ADD4FF008012046FFF76AFD7F
:100890002046BDE810400921FFF768BD0ADA4FF095
:1008A00008012046FFF762FD2046BDE810400921FF
:1008B000FFF758BD08212046FFF758FD2046BDE848
:1008C00010400921FFF752BD70B50446714D002C50
:1008D00008DD4FF00100FFF7D2FFA0B2FFF7A2FF43
:1008E000688070BD0ADA4FF0FF30FFF7C8FF604242
:1008F00080B2FFF797FF4042688070BD0020FFF78D
:10090000BEFF0020FFF78EFF0020688070BD70B52D
:100910000446604D002C08DD4FF00100FFF78AFF10
:10092000A0B2FFF777FF288070BD0ADA4FF0FF30E2
:10093000FFF780FF604280B2FFF76CFF40422880E3
:1009400070BD0020FFF776FF0020FFF763FF002057
:10095000288070BD10B50020FFF7D9FFBDE810401A
:100960000020B1E710B54C48816941F00D0181616B
:10097000C16941F00101C161454C032206212046B5
:10098000FFF7D2FC032207212046FFF7CDFC03220C
:1009900008212046FFF7C8FC032209212046FFF763
:1009A000C3FC3E4C0B2201212046FFF7BDFC0B226D
:1009B00002212046FFF7B8FC39483A490068B0FBED
:1009C000F1F0401E81B2E004816240F2E731C16281
:1009D000816921F4E0418161816941F4D041816103
:1009E000C16921F07001C161C16941F06801C16153
:1009F000016A41F48871016200218163C1630121B0
:100A0000416181210160BDE81040A3E72148B0F9B0
:100A1000000070471F48B0F90200704710B500B2DF
:100A20000446FFF774FF2046BDE810404CE710B5C0
:100A3000404200B20446FFF76AFF2046BDE810407E
:100A400042E710B500B20446404200B2FFF75FFF34
:100A50002046BDE8104037E710B500B20446FFF766
:100A600056FF6042BDE8104000B22DE710B50C46BD
:100A700000B2FFF74CFF20B2BDE8104024E710B5EC
:100A8000044608B2FFF743FF20B2BDE810401BE761
:100A9000000C01400E000020001002400008014040
:100AA0001400002040420F000E48016841F001018F
:100AB000016001688907FCD5416821F003014160AC
:100AC000816941F0010181610748416821F0E061DD
:100AD0004160416841F0007141607047044903483A
:100AE00008607047001002400000014000127A00C8
:100AF0001400002065490A681206FCD56349091DE7
:100B0000086070473CB50023002802D06C460A21DB
:100B10000EE0BDE83C403020ECE7B0FBF1F201FB19
:100B2000120230321D465B1C5BB26255B0FBF1F025
:100B300038B1062BF1DB04E05B1E5BB2E05CFFF733
:100B4000D9FF002BF8DC3CBD10B50346002B07DDB8
:100B50004FF02B00FFF7CEFFBDE8104098B2D1E771
:100B600008DA4FF02D00FFF7C5FF5842BDE81040EE
:100B700080B2C7E7BDE810403020BBE770B504463F
:100B80004348816944F2050211438161414D0B22C2
:100B900009212846FFF7C8FB04220A212846FFF74F
:100BA000C3FB0CB94FF4E1343B48006800EB540040
:100BB000B0FBF4F035490831086034480C210C30A2
:100BC00001600021021D1160121D1160016841F4D5
:100BD0000051016070BD00B5034602E05B1CFFF7E9
:100BE00089FF002B02D018780028F7D100BD10B57E
:100BF00004462AA0FFF7EFFF2046FFF783FFBDE87A
:100C0000104027A0E7E72DE9F04708AD8246E0CD88
:100C10000C469046994621A0FFF7DDFF34B15046BF
:100C2000FFF770FF20A0FFF7D6FF02E021A0FFF73B
:100C3000D2FF24A0FFF7CFFFB8F1000F01D023A00F
:100C400000E024A0FFF7C7FF24A0FFF7C4FFB9F11D
:100C5000000F01D01DA000E01EA0FFF7BCFF21A0E7
:100C6000FFF7B9FF2846FFF76FFF20A0FFF7B3FF9C
:100C70003046FFF769FF1FA0FFF7ADFF3846FFF7CB
:100C8000AAFFBDE8F0471DA0A5E70000003801401D
:100C900000100240000801401400002055533D00A0
:100CA000636D0D0A00000000636D2C55535F4F4BC0
:100CB0003D310000494E56414C49442C55535F4F3D
:100CC0004B3D30002C49525F4C3D0000424C4F439D
:100CD0004B000000434C4541520000002C49525F3C
:100CE000523D00002C50574D5F4C3D002C50574D4D
:100CF0005F523D002C4143543D0000000D0A0000AE
:100D00002DE9F04105460C46FFF75CFB0646514FC6
:100D100008E0FFF757FB801B80B2A04202D30020FF
:100D2000BDE8F0810F213846FFF724FBA842F0D13F
:100D30000120F5E770B5484C6078002808D04EF6E1
:100D40006025FFF73FFB6188401A80B2A842F8D3C4
:100D500070BD10B54148816941F0080181613D4C89
:100D600003220E212046FFF7DFFA08220F2120463A
:100D7000FFF7DAFA0E212046FFF7F8FA0F21204696
:100D8000FFF7F4FA344800210170417010BD70B5CE
:100D9000FFF7D0FF4FF47A710020FFF7B1FF18B3CF
:100DA000FFF710FB2C49488001204870294E0E2186
:100DB0003046FFF7DBFA0220FFF709FB0E21304631
:100DC000FFF7D0FA0C20FFF702FB0E213046FFF7A9
:100DD000CDFA47F2305529460120FFF791FF28B19F
:100DE000FFF7F0FA04460BE0002070BD002070BD54
:100DF000FFF7E8FA001B80B2A84201D9002070BDBD
:100E00000F213046FFF7B6FA0128F1D0FFF7DAFAE2
:100E1000001B80B23A21B0FBF1F070BD10B5FFF7B6
:100E2000B6FF821E0C49B2F5957F02D801220A70E6
:100E300010BD0020087010BD07480078704710B53D
:100E40000446FFF7EBFFA04201D9012010BD0020AE
:100E500010BD0000000C01401800002000100240EE
:100E6000704770477047754600F02CF8AE46050095
:100E70006946534620F00700854618B020B5FFF7B5
:100E800089F9BDE820404FF000064FF000074FF011
:100E900000084FF0000B21F00701AC46ACE8C00998
:100EA000ACE8C009ACE8C009ACE8C0098D467047A1
:100EB00010B50446AFF300802046BDE81040FFF7B0
:100EC0005CB90000004870471C0000200149182050
:100ED000ABBEFEE72600020070470000494E4954B1
:100EE00000000000040F0008000000201C000000AB
:100EF00028010008200F00081C00002064060000E4
:100F00004401000800000000DC0E000800000000A2
:100F1000000000000000000000127A000000000045
:040000050800018965
:00000001FF
