:020000040800F2
:100000008006002089010008910100089101000884
:100010009101000891010008910100080000000012
:100020000000000000000000000000009101000836
:1000300091010008000000009101000891010008F2
:100040009101000891010008910100089101000848
:100050009101000891010008910100089101000838
:100060009101000891010008910100089101000828
:100070009101000891010008910100089101000818
:100080009101000891010008910100089101000808
:1000900091010008910100089101000891010008F8
:1000A00091010008910100089101000891010008E8
:1000B00091010008910100089101000891010008D8
:1000C00091010008910100089101000891010008C8
:1000D00091010008910100089101000891010008B8
:1000E00091010008910100089101000800F002F858
:1000F00000F03AF80AA090E8000C82448344AAF188
:100100000107DA4501D100F02FF8AFF2090EBAE885
:100110000F0013F0010F18BFFB1A43F0010318473B
:100120005C0F00007C0F0000103A24BF78C878C133
:10013000FAD8520724BF30C830C144BF04680C60ED
:10014000704700000023002400250026103A28BF35
:1001500078C1FBD8520728BF30C148BF0B60704739
:100160001FB51FBD10B510BD00F025F81146FFF7F3
:10017000F7FF00F049FF00F043F803B4FFF7F2FF88
:1001800003BC00F04BF8000000F0EEFCFFF7AEBF40
:10019000FEE7000002480349034A044B7047000091
:1001A00080000020800600208002002080020020C5
:1001B000704770477047754600F02CF8AE46050052
:1001C0006946534620F00700854618B020B5FFF772
:1001D000E1FFBDE820404FF000064FF000074FF070
:1001E00000084FF0000B21F00701AC46ACE8C00955
:1001F000ACE8C009ACE8C009ACE8C0098D4670475E
:1002000010B50446AFF300802046BDE81040FFF76C
:10021000B4BF0000004870471C00002001491820AE
:10022000ABBEFEE7260002007047000001480068F0
:1002300080B27047240400400F48C06940F00200BB
:100240000D49C8610D4800680D49B0FBF1F0401E32
:1002500080B20C4908604FF6FF70091D086000204D
:100260000849091F0860012006491439086005493A
:100270002839086070470000001002401800002074
:1002800040420F002804004000B5034603E04FF44D
:100290007A7000F005F8181EA3F10103F7D100BD34
:1002A00000B50146FFF7C2FF024600BFFFF7BEFFE1
:1002B000801A80B28842F9DB00BD70B5034614464F
:1002C000082903DA18468D062A0E04E0181DA1F14C
:1002D0000805AD062A0E05680F269640B543056051
:1002E000056804F00F0696403543056070BD024670
:1002F000906801238B40184008B10120704700200E
:10030000FCE701228A404261704701228A40026173
:100310007047000010B50C48806940F004000A499D
:10032000886108220C210948FFF7C7FF0C21074804
:10033000FFF7EBFF08220B210448FFF7BEFF0B215C
:100340000248FFF7E2FF10BD001002400008014024
:1003500010B50C21014800F003F810BD0008014061
:100360002DE9F04106460F46002500240EE03946EF
:100370003046FFF7BCFF8046B8F1000F01D1681C82
:10038000C5B20320FFF780FF601CC4B2032CEEDB74
:10039000022D02DB0120BDE8F0810020FBE7000018
:1003A00010B50B210148FFF7DBFF10BD000801402D
:1003B00070B504460D46782000F01AFA204600F089
:1003C00005FA70BD014649B10A480078022808DAEA
:1003D00008480078401C074A107002E00020054AD7
:1003E000107004480078022801DB012070470020CB
:1003F000FCE700000C00002010B5044606E00A20CF
:10040000FFF742FF0A2000F02FFA0A3C0A2CF6D22E
:100410002CB12046FFF738FFA0B200F025FA10BD3E
:1004200010B5142000F0E4F9002000F0CFF900F03E
:10043000B5F810BD70B504461848007808B1002022
:1004400070BDE07838BB207928BB0A21204600F037
:1004500089F800B3C8224FF496611148008800F073
:100460008BF805460DB90020EAE74FF40C7000F058
:100470001DFA2846FFF7C0FF00F06EFB0848008811
:100480002844074908800120044908701420FFF718
:10049000B3FF0120D4E70020D2E700000D000020C8
:1004A0000A00002010B5044620880F2804DA4FF413
:1004B0001B7000F0FBF903E040F28A2000F0F6F92F
:1004C0002320FFF799FF10BD2DE9FC4104460E469D
:1004D000174623E0684600F071F83946684600F098
:1004E00041F828B9502000F083F90020BDE8FC81D4
:1004F000282C01DD282000E020460546304600F08B
:10050000D5F92846FFF778FF00F026FBAC4202DD64
:100510001420FFF771FF601B84B200BF002CD9D1FB
:10052000502000F065F90120E0E7000010B500F070
:1005300013FB002006490870064908800649087028
:10054000064908704FF496700549088010BD0000F8
:10055000080000200A0000200C0000200D000020F0
:10056000000000200246907820B11088884201DD0A
:10057000012070470020FCE710B503468B4202DAE9
:10058000C81A80B200E0002004460CB9002010BD5B
:10059000944201DD1046FAE72046F8E71CB56846AC
:1005A00000F00CF80A216846FFF7DCFF28B10A22A8
:1005B00040F28A21DC20FFF787FF1CBD1CB50446F2
:1005C00000F07AFCADF8000000F070FC8DF802003D
:1005D000FFF7BEFE8DF80300FFF7E2FE8DF8040082
:1005E0000A4800990160BDF804108180084800881D
:1005F000B0F5967F04D300F0D5F8002004490880B8
:1006000000982060BDF80400A0801CBD02000020FE
:100610000000002070B505461A480088B0F5827FBA
:1006200006DBE878FFF7CEFE10B1FFF7F9FE70BDEC
:1006300014480088B0F5966F02DBFFF7F1FEF6E78D
:100640002846FFF7F7FE00B1F1E72D224FF496613F
:100650000C480088FFF790FF04464FF4757140F294
:10066000262000F09DF92046FFF7C6FE00F074FA40
:10067000044800882044034908801420FFF7BCFE8A
:1006800000BFD4E70A00002010B504460B480078EC
:10069000012803D12046FFF7BDFF0EE00748007890
:1006A000022803D1204600F00BF806E0034800784A
:1006B000032802D1204600F03DF810BD08000020BC
:1006C00070B505461A480088B0F5827F06DB2879A8
:1006D000FFF778FE10B1FFF7A3FE70BD1448008845
:1006E000B0F5966F02DBFFF79BFEF6E72846FFF7B3
:1006F000A1FE00B1F1E72D224FF496610C4800886D
:10070000FFF73AFF04464FF4757140F2262000F0DF
:100710005AF92046FFF770FE00F01EFA04480088E0
:100720002044034908801420FFF766FE00BFD4E789
:100730000A00002070B5054619480088B0F5827F90
:100740000ADB0F212846FFF70DFF0646FFF73AFEAA
:1007500010B1FFF765FE70BD11480088B0F5E16F7C
:1007600002DBFFF75DFEF6E750224FF4E1610C4833
:100770000088FFF701FF044640F28A2000F0E2F90A
:100780002046FFF739FE00F0E7F9054800882044CD
:10079000034908801420FFF72FFE00BFDBE70000AD
:1007A0000A0000207CB500F091F8044600F088F8BB
:1007B0000546054ECDE900043379F278B1783088EA
:1007C00000F040FA7CBD00000200002004490870DF
:1007D0000021044A1180044A1170044A11707047C4
:1007E000080000200A0000200C0000200D0000205E
:1007F00010B5044600F0B0F92046FFF7FDFD10BD2E
:100800001CB56846FFF7DAFE1648007818B168464E
:10081000FFF73AFF1CBD9DF8020018B96420FFF7EE
:10082000E7FFF7E79DF8030020B969460120FFF7CD
:10083000BFFD14E00A216846FFF794FE18B1684630
:10084000FFF730FE0BE09DF8040020B96946022056
:10085000FFF7AEFD03E069460320FFF7A9FD00BFE7
:10086000D8E700000800002010B5044607480088BB
:1008700020440649088008460088B0F5967F04D3D6
:10088000FFF790FF00200149088010BD0000002004
:1008900070B504460D4666190CB9002070BD002ED7
:1008A00000DA0026B0B200F085F8F7E710B504468C
:1008B00020B200F093F820B200F0EAF810BD00007A
:1008C0000148B0F9000070470E0000200148B0F95F
:1008D000000070471000002010B52C48806940F0DF
:1008E0000D002A4988610846C06940F00100C861CE
:1008F000032206212648FFF7E0FC032207212448B3
:10090000FFF7DBFC032208212148FFF7D6FC032276
:1009100009211F48FFF7D1FC0B2201211D48FFF7D9
:10092000CCFC0B2202211B48FFF7C7FC1A480068C9
:100930001A49B0FBF1F0401E80B20906886240F20D
:10094000E730C8620846806920F4E04088610846C4
:10095000806940F4D04088610846C06920F070008A
:10096000C8610846C06940F06800C8610846006A6E
:1009700040F48870086200208863C86301204861E1
:100980008120086000F0E8F810BD0000001002406F
:10099000000C0140000801401800002040420F00F8
:1009A00070B504460D4620B200F018F828B200F0E9
:1009B0006FF870BD0146B1F57A7F02DD4FF47A70B1
:1009C00070470846FCE770B504460D4628B200F0B3
:1009D00005F820B200F05CF870BD000010B50446C8
:1009E000002C09DD012000F023F8A0B200F044F84B
:1009F00000B20E49088017E0002C0CDA4FF0FF30EF
:100A000000F016F8614288B200F036F8404200B2B9
:100A10000649088008E0002000F00AF8002000F0F5
:100A20002BF800200149088010BD00000E000020B6
:100A300010B50446002C08DD06210E48FFF765FCC2
:100A400007210C48FFF75DFC12E0002C08DA0621B4
:100A50000848FFF756FC07210648FFF756FC07E059
:100A600006210448FFF74DFC07210248FFF749FC27
:100A700010BD0000000C014070B50546002128465D
:100A8000FFF706FF04464FF08040C463204670BD68
:100A900010B50446002C09DD012000F023F8A0B2B7
:100AA00000F044F800B20E49088017E0002C0CDA80
:100AB0004FF0FF3000F016F8614288B200F036F8CF
:100AC000404200B20649088008E0002000F00AF821
:100AD000002000F02BF800200149088010BD000024
:100AE0001000002010B50446002C08DD08210E4837
:100AF000FFF70BFC09210C48FFF703FC12E0002C68
:100B000008DA08210848FFF7FCFB09210648FFF72F
:100B1000FCFB07E008210448FFF7F3FB092102482A
:100B2000FFF7EFFB10BD0000000C014070B505465B
:100B300000212846FFF7ACFE04464FF08040846356
:100B4000204670BD10B50446604200B2FFF746FF74
:100B500020B2FFF79DFF10BD10B50020FFF73EFF4C
:100B60000020FFF795FF10BD1148006840F001001C
:100B70000F49086000BF0E48006800F0020000281E
:100B8000F9D00B48406820F0030009494860084646
:100B9000806940F0010088610648406820F0E0600C
:100BA000044948600846406840F00070486070475B
:100BB000001002400000014070B5044616488069EC
:100BC00044F205010843144988610B2209211348A6
:100BD000FFF773FB04220A211048FFF76EFB0CB9E4
:100BE0004FF4E1340E48006800EB5400B0FBF4F51C
:100BF0000C4805600C200B49091D08600020091DE8
:100C00000860091D08600748001D006840F4005096
:100C10000449091D086070BD001002400008014031
:100C2000180000200838014000BF0549096801F09C
:100C300080010029F9D00249091D086070470000B1
:100C4000003801402DE9F04707460C4615461E4680
:100C5000DDE908891AA000F076F834B1384600F0D2
:100C60007EF818A000F06FF802E019A000F06BF811
:100C700000F09CF81AA000F066F80DB11AA100E08F
:100C80001BA1084600F05FF81BA000F05CF80EB155
:100C900015A100E016A1084600F055F818A000F0D4
:100CA00052F8404600F036F817A000F04CF84846DD
:100CB00000F030F816A000F046F8BDE8F08700001C
:100CC00055533D00636D2C55535F4F4B3D31000034
:100CD000494E56414C49442C55535F4F4B3D3000D3
:100CE0002C49525F4C3D0000424C4F434B000000EA
:100CF000434C4541520000002C49525F523D0000D8
:100D00002C50574D5F4C3D002C50574D5F523D00CD
:100D10000D0A000010B50446002C06DD2B20FFF75D
:100D200083FFA0B200F01BF80CE0002C07DA2D20A6
:100D3000FFF77AFF614288B200F011F802E030203C
:100D4000FFF772FF10BD00B5024603E012F8010B79
:100D5000FFF76AFF12B110780028F7D100BD1CB56B
:100D6000024600231AB93020FFF75EFF1CBD0DE0DC
:100D70000A20B2FBF0F100FB1120303019465C1C58
:100D800063B20DF801000A20B2FBF0F2002A01DD87
:100D9000062BEDDB06E0591E49B20B461DF801009B
:100DA000FFF742FF002BF6DC00BFDFE710B513A012
:100DB000FFF7C9FF00F074F8052818D2DFE800F04B
:100DC00003070B0F130010A0FFF7BDFF13E010A0E7
:100DD000FFF7B9FF0FE011A0FFF7B5FF0BE012A07E
:100DE000FFF7B1FF07E014A0FFF7ADFF03E014A089
:100DF000FFF7A9FF00BF00BF10BD00002C55535FD7
:100E00004552523D000000004E4F4E45000000008C
:100E100049444C455F484947480000005741495400
:100E20005F524953450000004543484F5F535455B6
:100E3000434B5F484947480052414E474500000038
:100E4000554E4B4E4F574E0010B51048806940F03C
:100E500008000E49886103220E210D48FFF72DFA84
:100E600008220F210A48FFF728FA0E210848FFF749
:100E700048FA0F210648FFF744FA00200549087098
:100E8000054908700549087010BD000000100240B7
:100E9000000C01401200002013000020140000206C
:100EA00001480078704700001300002001480078D6
:100EB000704700001200002010B500F01DF8044635
:100EC000022C0ADBB4F5967F07DC01200849087084
:100ED000002008490870204610BD00200449087011
:100EE0000448007810B90420024908700020F3E794
:100EF000120000201300002070B500F071F84FF4CC
:100F00007A71002000F052F820B9012023490870BE
:100F1000002070BDFFF78AF921490880012021498E
:100F200008700E212048FFF7ECF90220FFF7B8F90E
:100F30000E211D48FFF7E9F90C20FFF7B1F90E214A
:100F40001948FFF7DEF947F23051012000F02EF882
:100F500020B90220114908700020DAE7FFF766F98E
:100F600004460CE0FFF762F9001B80B247F23051F3
:100F7000884204DD0320094908700020C9E70F21D9
:100F80000948FFF7B4F90128ECD0FFF74FF9001B2F
:100F900085B23A20B5FBF0F0BBE70000130000205B
:100FA0001600002014000020000C014070B504461B
:100FB0000D46FFF73BF9064607E0FFF737F9801BC0
:100FC00080B2A84201DB002070BD0F210348FFF76B
:100FD0008EF9A042F1D10120F6E70000000C01409B
:100FE00010B50748007850B100BFFFF71FF9054959
:100FF0000988401A80B24EF660218842F5DB10BDA8
:101000001400002016000020FFF716F9FFF764FC1B
:10101000FFF71AFFFFF77EF94FF4E130FFF7CCFD41
:1010200006A0FFF790FEFFF781FA4FF4FA70FFF782
:101030002BF901E0FFF7E4FBFCE700004D617A6566
:10104000526F626F74207374617475733A205553D4
:101050002C2055535F4F4B2C2055535F4552522C3B
:101060002049525F4C2C2049525F522C2050574D42
:101070005F4C2C2050574D5F520D0A009C10000809
:10108000000000201C00000028010008B810000823
:101090001C0000206406000044010008000000005D
:1010A0000000000000000000000000000000000040
:0810B0000000000000127A00AC
:040000050800018965
:00000001FF
