:020000040800F2
:100000008006002089010008910100089101000884
:100010009101000891010008910100080000000012
:100020000000000000000000000000009101000836
:1000300091010008000000009101000891010008F2
:100040009101000891010008910100089101000848
:100050009101000891010008910100089101000838
:100060009101000891010008910100089101000828
:100070009101000891010008910100089101000818
:100080009101000891010008910100089101000808
:1000900091010008910100089101000891010008F8
:1000A00091010008910100089101000891010008E8
:1000B00091010008910100089101000891010008D8
:1000C00091010008910100089101000891010008C8
:1000D00091010008910100089101000891010008B8
:1000E00091010008910100089101000800F002F858
:1000F00000F03AF80AA090E8000C82448344AAF188
:100100000107DA4501D100F02FF8AFF2090EBAE885
:100110000F0013F0010F18BFFB1A43F0010318473B
:10012000100C0000300C0000103A24BF78C878C1D1
:10013000FAD8520724BF30C830C144BF04680C60ED
:10014000704700000023002400250026103A28BF35
:1001500078C1FBD8520728BF30C148BF0B60704739
:100160001FB51FBD10B510BD00F025F81146FFF7F3
:10017000F7FF00F09BFD00F043F803B4FFF7F2FF38
:1001800003BC00F04BF8000000F04CFBFFF7AEBFE3
:10019000FEE7000002480349034A044B7047000091
:1001A00080000020800600208002002080020020C5
:1001B000704770477047754600F02CF8AE46050052
:1001C0006946534620F00700854618B020B5FFF772
:1001D000E1FFBDE820404FF000064FF000074FF070
:1001E00000084FF0000B21F00701AC46ACE8C00955
:1001F000ACE8C009ACE8C009ACE8C0098D4670475E
:1002000010B50446AFF300802046BDE81040FFF76C
:10021000B4BF0000004870472000002001491820AA
:10022000ABBEFEE726000200704700001CB54FF48D
:10023000E17840F2DC544FF4FA754FF47A794FF4D8
:100240000C774FF46176684600F042F92BA000F07D
:1002500085F9404600F0A0F900F064F9204600F06E
:100260009BF82AA000F07AF900F0D2FA00F05AF9CF
:10027000284600F091F828A000F070F9404600F000
:1002800080F900F04FF9484600F086F81FA000F012
:1002900065F900F0BDFA00F045F9284600F07CF859
:1002A00021A000F05BF93946B42000F0EBF900F032
:1002B00039F9304600F070F814A000F04FF900F062
:1002C000A7FA00F02FF9284600F066F819A000F010
:1002D00045F93946B42000F0E5F900F023F930463D
:1002E00000F05AF809A000F039F900F091FA00F096
:1002F00019F9204600F050F8A5E700005445535482
:100300005F464F5257415244000000005445535439
:100310005F53544F50000000544553545F424143D3
:100320004B57415244000000544553545F4C4546DE
:1003300054000000544553545F524947485400004C
:100340000148006880B27047240400400E48C1692B
:1003500041F00201C1610D480D490068B0FBF1F0A8
:100360000C49401E80B20860091D4FF6FF700860FE
:1003700008490020091F0860064901201439086057
:10038000044928390860704700100240140000201A
:1003900040420F002804004010B503464FF47A7421
:1003A00002E0204600F004F85B1E581CF9D110BD95
:1003B00000B50246FFF7C4FF0146FFF7C1FF401A30
:1003C00080B29042F9D300BD10B5082902D2890647
:1003D000090E03E0001D08398906090E03680F2481
:1003E0008C40A3430360036802F00F028A4013436A
:1003F000036010BD806801228A40104201D00120B4
:1004000070470020704701228A40426170470122F4
:100410008A4002617047000010B50D48816941F0C3
:10042000040181610B4C08220C212046FFF7CCFF10
:100430000C212046FFF7EBFF08220B212046FFF797
:10044000C3FF2046BDE810400B21FFF7E0BF0000CE
:1004500000100240000801400C21014800F002B8E1
:10046000000801402DE9F04106460F460025002412
:1004700039463046FFF7BEFF08B96D1CEDB20320C8
:10048000FFF78AFF641CE4B2032CF1D3022D02D3E0
:100490000120BDE8F0810020FBE700000B210148AE
:1004A000FFF7E0BF0008014010B5064C00202070A7
:1004B00005A000F053F800F0ABF94FF4967060809F
:1004C00010BD00000000002053544F5000000000F9
:1004D0007CB5054600F000FBADF8000000F0F6FA30
:1004E0008DF8020000F0C6FA8DF80300FFF7B4FFA4
:1004F0008DF80400FFF7D2FF8DF80500084C009836
:10050000A060BDF80460A6816088B0F5967F03D333
:1005100000F008F80020608000982860AE807CBD64
:10052000000000207FB500F047F8054600F03EF8D7
:10053000094C0646E07800F049FB0246A4F10800A9
:1005400041686079CDE90165039100902379A17834
:10055000208800F0C3F97FBD08000020002801D0EA
:100560000149486070470000000000200144002855
:1005700005D0002900DA002188B200F08DB80020F3
:10058000704710B5404200B2044600F095F820468E
:10059000BDE8104000F0E6B810B500B2044600F027
:1005A0008BF82046BDE8104000F0DCB80148B0F9F7
:1005B000000070470E0000200148B0F902007047AB
:1005C0000E00002010B52A48816941F00D018161BB
:1005D000C16941F00101C161264C03220621204678
:1005E000FFF7F2FE032207212046FFF7EDFE03226C
:1005F00008212046FFF7E8FE032209212046FFF7E5
:10060000E3FE1D4C0B2201212046FFF7DDFE0B22ED
:1006100002212046FFF7D8FE184819490068B0FBB0
:10062000F1F0401E81B2E004816240F2E731C16224
:10063000816921F4E0418161816941F4D0418161A6
:10064000C16921F07001C161C16941F06801C161F6
:10065000016A41F48871016200218163C163012153
:10066000416181210160BDE8104000F0D1B8000077
:1006700000100240000C014000080140140000205E
:1006800040420F0010B50C4600B200F015F820B241
:10069000BDE8104000F066B84FF47A71884200D986
:1006A0000846704710B5044608B200F005F820B2BD
:1006B000BDE8104000F056B870B50446104D002C4F
:1006C00008DD4FF0010000F01DF8A0B200F042F884
:1006D000288070BD0ADA4FF0FF3000F013F8604256
:1006E00080B200F037F84042288070BD002000F052
:1006F00009F8002000F02EF80020288070BD0000CE
:100700000E00002010B5124C00280ADD4FF0060143
:100710002046FFF77CFE2046BDE810400721FFF78A
:1007200072BE0ADA4FF006012046FFF76CFE204643
:10073000BDE810400721FFF76ABE06212046FFF7FB
:1007400062FE2046BDE810400721FFF75CBE0000B6
:10075000000C014010B50021FFF708FF4FF0804169
:10076000C86310BD70B50446104D002C08DD4FF075
:10077000010000F01DF8A0B200F042F8688070BDE2
:100780000ADA4FF0FF3000F013F8604280B200F058
:1007900037F84042688070BD002000F009F8002062
:1007A00000F02EF80020688070BD00000E000020D0
:1007B00010B5124C00280ADD4FF008012046FFF763
:1007C00026FE2046BDE810400921FFF71CBE0ADACC
:1007D0004FF008012046FFF716FE2046BDE8104006
:1007E0000921FFF714BE08212046FFF70CFE204622
:1007F000BDE810400921FFF706BE0000000C0140D3
:1008000010B50021FFF7B2FE4FF08041886310BDA4
:1008100010B50020FFF750FFBDE810400020FFF7A3
:10082000A1BF00000C48016841F0010101600168AE
:100830008907FCD5416821F003014160816941F0DD
:10084000010181610548416821F0E0614160416832
:1008500041F000714160704700100240000001400B
:1008600070B504461448816944F205021143816160
:10087000124D0B2209212846FFF7A6FD04220A216A
:100880002846FFF7A1FD0CB94FF4E1340C4800688D
:1008900000EB5400B0FBF4F00A49086009480C2151
:1008A000001D01600021021D1160121D1160016810
:1008B00041F40051016070BD001002400008014089
:1008C000140000200838014003490A681206FCD5CC
:1008D0000149091D08607047003801402DE9F05FAB
:1008E0008346DDE90A95DDE90C670C469246984699
:1008F00020A000F090F834B1584600F098F81EA0FF
:1009000000F089F802E01FA000F085F821A000F0B7
:1009100082F8504600F07FF821A000F07CF8B8F192
:10092000000F01D020A000E021A000F074F822A068
:1009300000F071F8B9F1000F01D01BA000E01CA07D
:1009400000F069F81EA000F066F8284600F046F8AE
:100950001DA000F060F8304600F040F81CA000F048
:100960005AF8384600F057F8BDE8F05F1AA000F0DA
:1009700052B8000055533D00636D2C55535F4F4BEB
:100980003D310000494E56414C49442C55535F4F70
:100990004B3D30002C55535F4552523D0000000046
:1009A0002C49525F4C3D0000424C4F434B0000002D
:1009B000434C4541520000002C49525F523D00001B
:1009C0002C50574D5F4C3D002C50574D5F523D0011
:1009D0002C4143543D0000000D0A000010B50346B1
:1009E000002B08DD4FF02B00FFF76EFFBDE8104035
:1009F00098B200F01CB809DA4FF02D00FFF764FF41
:100A00005842BDE8104080B200F011B8BDE8104077
:100A10003020FFF759BF00B5034602E05B1CFFF72B
:100A200053FF002B02D018780028F7D100BD3CB549
:100A30000023002802D06C460A210FE0BDE83C40AC
:100A40003020FFF741BFB0FBF1F201FB1202303260
:100A50001D465B1C5BB26255B0FBF1F038B1062B52
:100A6000F1DB04E05B1E5BB2E05CFFF72DFF002BC7
:100A7000F8DC3CBD01488078704700001800002079
:100A800010B50F48816941F0080181610D4C0322C6
:100A90000E212046FFF798FC08220F212046FFF781
:100AA00093FC0E212046FFF7AEFC0F212046FFF7F6
:100AB000AAFC05480021017041700221817010BD1F
:100AC00000100240000C014018000020014800788E
:100AD00070470000180000202DE9F0410024002696
:100AE000094D4FF4957700F011F8811EB94204D8F2
:100AF00001212970AE70BDE8F081641CE4B2032CC2
:100B0000F1D32E700020F6E7180000202DE9F04107
:100B100000F0BAF84FF47A71002000F099F8294EED
:100B2000012408B3FFF70CFCB0807470264F0E212F
:100B30003846FFF768FC0220FFF73AFC0E213846E2
:100B4000FFF765FC0C20FFF733FC0E213846FFF75A
:100B50005AFC47F230552946012000F079F838B1A7
:100B6000FFF7EEFB044611E0B4700020BDE8F08111
:100B70000220B0700020F9E7FFF7E2FB001B80B213
:100B8000A84203D90320B0700020EFE70F213846B8
:100B9000FFF730FC0128EFD0FFF7D2FB001B80B23B
:100BA0003A21B0FBF1F0022802D20421B170DDE756
:100BB000B0F5967F02D90521B170D7E70021B17059
:100BC000D4E7000018000020000C0140062810D2D5
:100BD000DFE800F0030507090B0D07A0704708A028
:100BE00070470BA070470EA0704712A0704714A06A
:100BF000704715A0704700004E4F4E4500000000A2
:100C00004543484F5F49444C455F484947480000C9
:100C10004E4F5F4543484F5F524953450000000027
:100C20004543484F5F484947485F54494D454F55F4
:100C300054000000544F4F5F434C4F534500000099
:100C4000544F4F5F46415200554E4B4E4F574E004A
:100C50002DE9F04105460C46FFF772FB0646094FA9
:100C600008E0FFF76DFB801B80B2A04202D300209A
:100C7000BDE8F0810F213846FFF7BCFBA842F0D158
:100C80000120F5E7000C014070B5074C60780028A2
:100C900008D04EF66025FFF753FBA188401A80B2BA
:100CA000A842F8D370BD000018000020FFF74EFBEB
:100CB000FFF788FCFFF7E4FEFFF7AEFB4FF4E130EF
:100CC000FFF7CEFD0548FFF7A6FEFFF7EDFB4FF45B
:100CD000FA70FFF761FBFFF7A9FA0000E00C0008CB
:100CE0004D617A65526F626F7420737461747573AD
:100CF0003A2055532C2055535F4F4B2C2055535FB2
:100D00004552522C2049525F4C2C2049525F522CA4
:100D10002050574D5F4C2C2050574D5F522C204196
:100D200043540D0A00000000494E495400000000E1
:100D3000500D0008000000202000000028010008DD
:100D4000700D00082000002060060000440100082B
:100D500000000000280D0008000000020000000054
:100D60000000000000127A000000020000000000F5
:040000050800018965
:00000001FF
