:020000040800F2
:10000000780600208901000891010008910100088C
:100010009101000891010008910100080000000012
:100020000000000000000000000000009101000836
:1000300091010008000000009101000891010008F2
:100040009101000891010008910100089101000848
:100050009101000891010008910100089101000838
:100060009101000891010008910100089101000828
:100070009101000891010008910100089101000818
:100080009101000891010008910100089101000808
:1000900091010008910100089101000891010008F8
:1000A00091010008910100089101000891010008E8
:1000B00091010008910100089101000891010008D8
:1000C00091010008910100089101000891010008C8
:1000D00091010008910100089101000891010008B8
:1000E00091010008910100089101000800F002F858
:1000F00000F03AF80AA090E8000C82448344AAF188
:100100000107DA4501D100F02FF8AFF2090EBAE885
:100110000F0013F0010F18BFFB1A43F0010318473B
:10012000B80E0000D80E0000103A24BF78C878C17D
:10013000FAD8520724BF30C830C144BF04680C60ED
:10014000704700000023002400250026103A28BF35
:1001500078C1FBD8520728BF30C148BF0B60704739
:100160001FB51FBD10B510BD00F025F81146FFF7F3
:10017000F7FF00F0F7FE00F043F803B4FFF7F2FFDB
:1001800003BC00F04BF8000000F09CFCFFF7AEBF92
:10019000FEE7000002480349034A044B7047000091
:1001A00078000020780600207802002078020020E5
:1001B000704770477047754600F02CF8AE46050052
:1001C0006946534620F00700854618B020B5FFF772
:1001D000E1FFBDE820404FF000064FF000074FF070
:1001E00000084FF0000B21F00701AC46ACE8C00955
:1001F000ACE8C009ACE8C009ACE8C0098D4670475E
:1002000010B50446AFF300802046BDE81040FFF76C
:10021000B4BF0000004870471800002001491820B2
:10022000ABBEFEE7260002007047000001480068F0
:1002300080B27047240400400F48C06940F00200BB
:100240000D49C8610D4800680D49B0FBF1F0401E32
:1002500080B20C4908604FF6FF70091D086000204D
:100260000849091F0860012006491439086005493A
:100270002839086070470000001002401400002078
:1002800040420F002804004000B5034603E04FF44D
:100290007A7000F005F8181EA3F10103F7D100BD34
:1002A00000B50146FFF7C2FF024600BFFFF7BEFFE1
:1002B000801A80B28842F9DB00BD70B5034614464F
:1002C000082903DA18468D062A0E04E0181DA1F14C
:1002D0000805AD062A0E05680F269640B543056051
:1002E000056804F00F0696403543056070BD024670
:1002F000906801238B40184008B10120704700200E
:10030000FCE701228A404261704701228A40026173
:100310007047000010B50C48806940F004000A499D
:10032000886108220C210948FFF7C7FF0C21074804
:10033000FFF7EBFF08220B210448FFF7BEFF0B215C
:100340000248FFF7E2FF10BD001002400008014024
:1003500010B50C21014800F003F810BD0008014061
:100360002DE9F04106460F46002500240EE03946EF
:100370003046FFF7BCFF8046B8F1000F01D1681C82
:10038000C5B20320FFF780FF601CC4B2032CEEDB74
:10039000022D02DB0120BDE8F0810020FBE7000018
:1003A00010B50B210148FFF7DBFF10BD000801402D
:1003B00000200149087070470800002010B504466D
:1003C0000A21204600F074F828B10A224FF41B716C
:1003D000002000F027F810BD10B5044606E00A2002
:1003E000FFF752FF0A2000F0EDF90A3C0A2CF6D282
:1003F0002CB12046FFF748FFA0B200F0E3F910BD92
:1004000010B5044620880F2804DA4FF41B7000F062
:10041000FBF903E040F28A2000F0F6F92320FFF711
:10042000DBFF10BD2DE9FC4104460E46174625E0D2
:10043000684600F0B5F83946684600F039F838B932
:1004400000F038FB5020FFF7C7FF0020BDE8FC811B
:10045000282C01DD282000E020460546304600F02B
:10046000D3F92846FFF7B8FF00F024FBAC4202DDC9
:100470001420FFF7B1FF601B84B200BF002CD7D15E
:1004800000F018FB5020FFF7A7FF0120DEE7000077
:1004900010B500F00FFB0020034908704FF4967070
:1004A0000249088010BD0000080000200000002064
:1004B0000246907820B11088884201DD0120704703
:1004C0000020FCE710B5044600F0F4FA7820FFF7AE
:1004D00083FF2046FFF772FF4FF4757240F212213E
:1004E0004FF4347000F01BF800F0E4FA6420FFF7DA
:1004F00073FF012000F0B2F800F001F810BD1CB548
:10050000684600F04DF80A216846FFF7D1FF28B190
:100510000A2240F28A21DC20FFF784FF1CBD2DE96E
:10052000F04104460D46164615E0DC2C01DDDC20CA
:1005300000E0204607463146284600F0DFF93846FD
:10054000FFF74AFF00F0B6FAE01B84B214B11420A2
:10055000FFF742FF00BF002CE7D1BDE8F0812DE995
:10056000F04104460D46164615E0DC2C01DDDC208A
:1005700000E0204607463146284600F0D2F93846CA
:10058000FFF72AFF00F096FAE01B84B214B11420A2
:10059000FFF722FF00BF002CE7D1BDE8F08100008B
:1005A0001CB5044600F036FCADF8000000F02CFC51
:1005B0008DF80200FFF7CCFE8DF80300FFF7F0FE88
:1005C0008DF804000A4800990160BDF8041081808C
:1005D00008480088B0F5967F04D300F02BF800207F
:1005E0000449088000982060BDF80400A0801CBD6C
:1005F000020000200000002010B5044600F05AFA66
:100600007820FFF7E9FE2046FFF7D8FE4FF4757219
:1006100040F212214FF43470FFF7A1FF00F04AFAC4
:100620006420FFF7D9FE022000F018F8FFF767FFFB
:1006300010BD00007CB500F0F7F8044600F0EEF8BD
:100640000546054ECDE900043379F278B17830885B
:1006500000F0A6FA7CBD00000200002001490870ED
:1006600070470000080000201CB56846FFF798FF9F
:100670000A216846FFF71CFF04469DF8020038B9BE
:1006800000F018FAFFF794FE6420FFF7A5FE1CBDEA
:100690002148007848B3684600F082F838B1FFF787
:1006A00087FE00F007FA1420FFF796FE1CE01A48B8
:1006B000007801280CD14FF4757240F21221DC2031
:1006C000FFF72DFF00F0F6F91420FFF785FE0BE091
:1006D0004FF4757240F21221DC20FFF740FF00F06A
:1006E000E9F91420FFF778FED1E79DF8030018B967
:1006F0006846FFF7E7FE0DE01CB16846FFF780FE95
:1007000008E09DF8040018B96846FFF775FF01E09E
:1007100000F004F800BFBAE70800002010B500F0B0
:10072000C9F97820FFF758FE00F00BF800F0C2F985
:100730007820FFF751FE0120FFF790FFFFF7DFFE63
:1007400010BD7FB5002524E040F2DC50401B84B290
:10075000502C00DD502440F28A2000F0A1F9204600
:10076000FFF73AFE00F0A6F9281985B21420FFF72A
:1007700033FE6846FFF714FFDDE90001CDE9020111
:100780000F2102A8FFF794FE10B1012004B070BD44
:1007900000BF40F2DC508542D6DB0020F6E70000C7
:1007A000014607480078012801D1C87870470448FD
:1007B0000078022801D10879F8E70120F6E7000067
:1007C0000800002010B50446074800882044064968
:1007D000088008460088B0F5967F04D3FFF72AFF0B
:1007E00000200149088010BD0000002070B50446BB
:1007F0000D4666190CB9002070BD002E00DA0026E7
:10080000B0B200F085F8F7E710B5044620B200F06A
:1008100093F820B200F0EAF810BD00000148B0F9EA
:10082000000070470A0000200148B0F9000070473E
:100830000C00002010B52C48806940F00D002A49BA
:1008400088610846C06940F00100C86103220621A2
:100850002648FFF732FD032207212448FFF72DFD2C
:10086000032208212148FFF728FD032209211F4800
:10087000FFF723FD0B2201211D48FFF71EFD0B2270
:1008800002211B48FFF719FD1A4800681A49B0FBFE
:10089000F1F0401E80B20906886240F2E730C8627B
:1008A0000846806920F4E04088610846806940F489
:1008B000D04088610846C06920F07000C8610846D1
:1008C000C06940F06800C8610846006A40F488705A
:1008D000086200208863C8630120486181200860A5
:1008E00000F0E8F810BD000000100240000C0140CC
:1008F000000801401400002040420F0070B504467B
:100900000D4620B200F018F828B200F06FF870BD64
:100910000146B1F57A7F02DD4FF47A7070470846E0
:10092000FCE770B504460D4628B200F005F820B289
:1009300000F05CF870BD000010B50446002C09DD25
:10094000012000F023F8A0B200F044F800B20E49F4
:10095000088017E0002C0CDA4FF0FF3000F016F89A
:10096000614288B200F036F8404200B20649088081
:1009700008E0002000F00AF8002000F02BF800202A
:100980000149088010BD00000A00002010B504468F
:10099000002C08DD06210E48FFF7B7FC07210C48A4
:1009A000FFF7AFFC12E0002C08DA06210848FFF739
:1009B000A8FC07210648FFF7A8FC07E00621044829
:1009C000FFF79FFC07210248FFF79BFC10BD0000CA
:1009D000000C014070B5054600212846FFF706FFD0
:1009E00004464FF08040C463204670BD10B50446F5
:1009F000002C09DD012000F023F8A0B200F044F83B
:100A000000B20E49088017E0002C0CDA4FF0FF30DE
:100A100000F016F8614288B200F036F8404200B2A9
:100A20000649088008E0002000F00AF8002000F0E5
:100A30002BF800200149088010BD00000C000020A8
:100A400010B50446002C08DD08210E48FFF75DFCB8
:100A500009210C48FFF755FC12E0002C08DA0821A8
:100A60000848FFF74EFC09210648FFF74EFC07E057
:100A700008210448FFF745FC09210248FFF741FC23
:100A800010BD0000000C014070B50546002128464D
:100A9000FFF7ACFE04464FF080408463204670BDF3
:100AA00010B50446604200B2FFF746FF20B2FFF7E0
:100AB0009DFF10BD10B50020FFF73EFF0020FFF79F
:100AC00095FF10BD1148006840F001000F49086013
:100AD00000BF0E48006800F002000028F9D00B4863
:100AE000406820F00300094948600846806940F0EA
:100AF000010088610648406820F0E06004494860D1
:100B00000846406840F0007048607047001002409E
:100B10000000014070B504461648806944F20501A2
:100B20000843144988610B2209211348FFF7C5FBCC
:100B300004220A211048FFF7C0FB0CB94FF4E1343E
:100B40000E48006800EB5400B0FBF4F50C4805605B
:100B50000C200B49091D08600020091D0860091DB3
:100B600008600748001D006840F400500449091D52
:100B7000086070BD00100240000801401400002011
:100B80000838014000BF0549096801F080010029CB
:100B9000F9D00249091D0860704700000038014083
:100BA0002DE9F04707460C4615461E46DDE9088943
:100BB0001AA000F076F834B1384600F07EF818A09C
:100BC00000F06FF802E019A000F06BF800F09CF85C
:100BD0001AA000F066F80DB11AA100E01BA10846AA
:100BE00000F05FF81BA000F05CF80EB115A100E06A
:100BF00016A1084600F055F818A000F052F840463B
:100C000000F036F817A000F04CF8484600F030F835
:100C100016A000F046F8BDE8F087000055533D00EF
:100C2000636D2C55535F4F4B3D310000494E56418B
:100C30004C49442C55535F4F4B3D30002C49525F7B
:100C40004C3D0000424C4F434B000000434C45419B
:100C5000520000002C49525F523D00002C50574D6D
:100C60005F4C3D002C50574D5F523D000D0A000077
:100C700010B50446002C06DD2B20FFF783FFA0B241
:100C800000F01BF80CE0002C07DA2D20FFF77AFFAC
:100C9000614288B200F011F802E03020FFF772FFE5
:100CA00010BD00B5024603E012F8010BFFF76AFF22
:100CB00012B110780028F7D100BD1CB50246002300
:100CC0001AB93020FFF75EFF1CBD0DE00A20B2FB11
:100CD000F0F100FB1120303019465C1C63B20DF8B6
:100CE00001000A20B2FBF0F2002A01DD062BEDDB49
:100CF00006E0591E49B20B461DF80100FFF742FFFE
:100D0000002BF6DC00BFDFE710B513A0FFF7C9FF2B
:100D100000F074F8052818D2DFE800F003070B0F85
:100D2000130010A0FFF7BDFF13E010A0FFF7B9FFFD
:100D30000FE011A0FFF7B5FF0BE012A0FFF7B1FF26
:100D400007E014A0FFF7ADFF03E014A0FFF7A9FF31
:100D500000BF00BF10BD00002C55535F4552523DEF
:100D6000000000004E4F4E450000000049444C4535
:100D70005F48494748000000574149545F52495372
:100D8000450000004543484F5F535455434B5F486F
:100D90004947480052414E4745000000554E4B4ED2
:100DA0004F574E0010B51048806940F008000E49BA
:100DB000886103220E210D48FFF77FFA08220F21D8
:100DC0000A48FFF77AFA0E210848FFF79AFA0F212E
:100DD0000648FFF796FA0020054908700549087093
:100DE0000549087010BD000000100240000C0140D1
:100DF0000E0000200F0000201000002001480078A5
:100E0000704700000F000020014800787047000084
:100E10000E00002010B500F01DF80446022C0ADB7D
:100E2000B4F5967F07DC01200849087000200849C6
:100E30000870204610BD002004490870044800785E
:100E400010B90420024908700020F3E70E000020CA
:100E50000F00002070B500F071F84FF47A71002097
:100E600000F052F820B9012023490870002070BD1D
:100E7000FFF7DCF9214908800120214908700E2183
:100E80002048FFF73EFA0220FFF70AFA0E211D481C
:100E9000FFF73BFA0C20FFF703FA0E211948FFF782
:100EA00030FA47F23051012000F02EF820B902202C
:100EB000114908700020DAE7FFF7B8F904460CE0A2
:100EC000FFF7B4F9001B80B247F23051884204DDCD
:100ED0000320094908700020C9E70F210948FFF7DE
:100EE00006FA0128ECD0FFF7A1F9001B85B23A20E1
:100EF000B5FBF0F0BBE700000F000020120000205F
:100F000010000020000C014070B504460D46FFF7AC
:100F10008DF9064607E0FFF789F9801B80B2A842E9
:100F200001DB002070BD0F210348FFF7E0F9A0426C
:100F3000F1D10120F6E70000000C014010B5074890
:100F4000007850B100BFFFF771F905490988401AD0
:100F500080B24EF660218842F5DB10BD1000002003
:100F600012000020FFF768F9FFF764FCFFF71AFF93
:100F7000FFF7D0F94FF4E130FFF7CCFD06A0FFF703
:100F800090FEFFF785FA4FF4FA70FFF77DF901E064
:100F9000FFF76AFBFCE700004D617A65526F626FF4
:100FA00074207374617475733A2055532C20555313
:100FB0005F4F4B2C2055535F4552522C2049525FB6
:100FC0004C2C2049525F522C2050574D5F4C2C2006
:100FD00050574D5F520D0A00F80F00080000002026
:100FE0001800000028010008101000081800002058
:100FF000600600004401000800000000000000003E
:1010000000000000000000000000000000127A0054
:040000050800018965
:00000001FF
