:020000040800F2
:100000008006002089010008910100089101000884
:100010009101000891010008910100080000000012
:100020000000000000000000000000009101000836
:1000300091010008000000009101000891010008F2
:100040009101000891010008910100089101000848
:100050009101000891010008910100089101000838
:100060009101000891010008910100089101000828
:100070009101000891010008910100089101000818
:100080009101000891010008910100089101000808
:1000900091010008910100089101000891010008F8
:1000A00091010008910100089101000891010008E8
:1000B00091010008910100089101000891010008D8
:1000C00091010008910100089101000891010008C8
:1000D00091010008910100089101000891010008B8
:1000E00091010008910100089101000800F002F858
:1000F00000F03AF80AA090E8000C82448344AAF188
:100100000107DA4501D100F02FF8AFF2090EBAE885
:100110000F0013F0010F18BFFB1A43F0010318473B
:10012000A40F0000C40F0000103A24BF78C878C1A3
:10013000FAD8520724BF30C830C144BF04680C60ED
:10014000704700000023002400250026103A28BF35
:1001500078C1FBD8520728BF30C148BF0B60704739
:100160001FB51FBD10B510BD00F025F81146FFF7F3
:10017000F7FF00F06DFF00F043F803B4FFF7F2FF64
:1001800003BC00F04BF8000000F012FDFFF7AEBF1B
:10019000FEE7000002480349034A044B7047000091
:1001A00080000020800600208002002080020020C5
:1001B000704770477047754600F02CF8AE46050052
:1001C0006946534620F00700854618B020B5FFF772
:1001D000E1FFBDE820404FF000064FF000074FF070
:1001E00000084FF0000B21F00701AC46ACE8C00955
:1001F000ACE8C009ACE8C009ACE8C0098D4670475E
:1002000010B50446AFF300802046BDE81040FFF76C
:10021000B4BF0000004870472000002001491820AA
:10022000ABBEFEE7260002007047000001480068F0
:1002300080B27047240400400F48C06940F00200BB
:100240000D49C8610D4800680D49B0FBF1F0401E32
:1002500080B20C4908604FF6FF70091D086000204D
:100260000849091F0860012006491439086005493A
:100270002839086070470000001002401C00002070
:1002800040420F002804004000B5034603E04FF44D
:100290007A7000F005F8181EA3F10103F7D100BD34
:1002A00000B50146FFF7C2FF024600BFFFF7BEFFE1
:1002B000801A80B28842F9DB00BD70B5034614464F
:1002C000082903DA18468D062A0E04E0181DA1F14C
:1002D0000805AD062A0E05680F269640B543056051
:1002E000056804F00F0696403543056070BD024670
:1002F000906801238B40184008B10120704700200E
:10030000FCE701228A404261704701228A40026173
:100310007047000010B50C48806940F004000A499D
:10032000886108220C210948FFF7C7FF0C21074804
:10033000FFF7EBFF08220B210448FFF7BEFF0B215C
:100340000248FFF7E2FF10BD001002400008014024
:1003500010B50C21014800F003F810BD0008014061
:100360002DE9F04106460F46002500240EE03946EF
:100370003046FFF7BCFF8046B8F1000F01D1681C82
:10038000C5B20320FFF780FF601CC4B2032CEEDB74
:10039000022D02DB0120BDE8F0810020FBE7000018
:1003A00010B50B210148FFF7DBFF10BD000801402D
:1003B00070B504460D46782000F02AFA204600F079
:1003C00015FA70BD014649B10A480078022808DADA
:1003D00008480078401C074A107002E00020054AD7
:1003E000107004480078022801DB012070470020CB
:1003F000FCE700000C00002010B5044606E00A20CF
:10040000FFF742FF0A2000F053FA0A3C0A2CF6D20A
:100410002CB12046FFF738FFA0B200F049FA10BD1A
:1004200010B508480478142000F0F2F9002000F01C
:10043000DDF9032C02D101200349087000F0BEF859
:1004400010BD0000080000200E00002070B504461A
:100450001848007808B1002070BDE07838BB2079DA
:1004600028BB0A21204600F08DF800B35A224FF431
:1004700096611148008800F08FF805460DB90020FC
:10048000EAE74FF40C7000F035FA2846FFF7B4FFA6
:1004900000F086FB084800882844074908800120AE
:1004A000044908701420FFF7A7FF0120D4E70020BB
:1004B000D2E700000D0000200A00002010B504461D
:1004C00020880F2804DA4FF4117000F013FA03E0CB
:1004D0004FF4167000F00EFA2320FFF78DFF10BDC9
:1004E0002DE9FC4104460E46174623E0684600F01D
:1004F00075F83946684600F045F828B9502000F0F4
:1005000087F90020BDE8FC81282C01DD282000E0CF
:1005100020460546304600F0EDF92846FFF76CFF0F
:1005200000F03EFBAC4202DD1420FFF765FF601BCC
:1005300084B200BF002CD9D1502000F069F901200D
:10054000E0E7000010B500F02BFB00200749087021
:10055000074908800749087007490870074908706B
:100560004FF496700649088010BD00000800002076
:100570000A0000200C0000200D0000200E000020CA
:10058000000000200246907820B11088884201DDEA
:10059000012070470020FCE710B503468B4202DAC9
:1005A000C81A80B200E0002004460CB9002010BD3B
:1005B000944201DD1046FAE72046F8E71CB568468C
:1005C00000F00CF80A216846FFF7DCFF28B10A2288
:1005D0004FF41671DC20FFF783FF1CBD1CB50446E9
:1005E00000F08EFCADF8000000F084FC8DF80200F5
:1005F000FFF7AEFE8DF80300FFF7D2FE8DF8040082
:100600000A4800990160BDF80410818008480088FC
:10061000B0F5967F04D300F0D5F800200449088097
:1006200000982060BDF80400A0801CBD02000020DE
:100630000000002070B505461A480088B0F5827F9A
:1006400006DBE878FFF7BEFE10B1FFF7E9FE70BDEC
:1006500014480088B0F5966F02DBFFF7E1FEF6E77D
:100660002846FFF7F3FE00B1F1E72D224FF4966123
:100670000C480088FFF790FF044640F2A2314FF487
:100680000C7000F0B1F92046FFF7B6FE00F088FAD2
:10069000044800882044034908801420FFF7ACFE7A
:1006A00000BFD4E70A00002010B504460B480078CC
:1006B000012803D12046FFF7BDFF0EE00748007870
:1006C000022803D1204600F00BF806E0034800782A
:1006D000032802D1204600F03DF810BD080000209C
:1006E00070B505461A480088B0F5827F06DB287988
:1006F000FFF768FE10B1FFF793FE70BD1448008845
:10070000B0F5966F02DBFFF78BFEF6E72846FFF7A2
:100710009DFE00B1F1E72D224FF496610C48008850
:10072000FFF73AFF044640F2A2314FF40C7000F09C
:100730006EF92046FFF760FE00F032FA04480088A8
:100740002044034908801420FFF756FE00BFD4E779
:100750000A00002070B5054619480088B0F5827F70
:100760000ADB0F212846FFF70DFF0646FFF72AFE9A
:1007700010B1FFF755FE70BD11480088B0F5E16F6C
:1007800002DBFFF74DFEF6E750224FF4E1610C4823
:100790000088FFF701FF044640F28A2000F0F6F9D6
:1007A0002046FFF729FE00F0FBF9054800882044A9
:1007B000034908801420FFF71FFE00BFDBE700009D
:1007C0000A0000207CB500F0A5F8044600F09CF873
:1007D0000546054ECDE900043379F278B1783088CA
:1007E00000F054FA7CBD00000200002004490870AB
:1007F0000021044A1180044A1170044A11707047A4
:10080000080000200A0000200C0000200D0000203D
:1008100010B5044600F0C4F92046FFF7EDFD10BD09
:100820001CB56846FFF7DAFE1F48007818B1684625
:10083000FFF73AFF1CBD9DF8020018B96420FFF7CE
:10084000E7FFF7E79DF8030008B9012000E000206A
:10085000044634B11548007818B10024002013492B
:10086000087024B169460120FFF7A2FD19E09DF848
:10087000040048B919216846FFF784FE20B969468B
:100880000220FFF795FD0CE00A216846FFF77AFE8B
:1008900018B16846FFF712FE03E069460320FFF730
:1008A00087FD00BFC6E70000080000200E00002002
:1008B00010B50446074800882044064908800846C9
:1008C0000088B0F5967F04D3FFF77CFF0020014934
:1008D000088010BD0000002070B504460D46661962
:1008E0000CB9002070BD002E00DA0026B0B200F076
:1008F00085F8F7E710B5044620B200F093F820B26F
:1009000000F0EAF810BD00000148B0F9000070479F
:10091000100000200148B0F90000704712000020CC
:1009200010B52C48806940F00D002A4988610846BE
:10093000C06940F00100C861032206212648FFF784
:10094000BCFC032207212448FFF7B7FC032208213F
:100950002148FFF7B2FC032209211F48FFF7ADFC35
:100960000B2201211D48FFF7A8FC0B2202211B4886
:10097000FFF7A3FC1A4800681A49B0FBF1F0401ECB
:1009800080B20906886240F2E730C8620846806992
:1009900020F4E04088610846806940F4D0408861D6
:1009A0000846C06920F07000C8610846C06940F080
:1009B0006800C8610846006A40F488700862002038
:1009C0008863C863012048618120086000F0E8F86E
:1009D00010BD000000100240000C01400008014062
:1009E0001C00002040420F0070B504460D4620B2A6
:1009F00000F018F828B200F06FF870BD0146B1F5AC
:100A00007A7F02DD4FF47A7070470846FCE770B5D4
:100A100004460D4628B200F005F820B200F05CF85C
:100A200070BD000010B50446002C09DD012000F067
:100A300023F8A0B200F044F800B20E49088017E095
:100A4000002C0CDA4FF0FF3000F016F8614288B24B
:100A500000F036F8404200B20649088008E0002065
:100A600000F00AF8002000F02BF80020014908806F
:100A700010BD00001000002010B50446002C08DD59
:100A800006210E48FFF741FC07210C48FFF739FC0F
:100A900012E0002C08DA06210848FFF732FC072193
:100AA0000648FFF732FC07E006210448FFF729FC5F
:100AB00007210248FFF725FC10BD0000000C014093
:100AC00070B5054600212846FFF706FF04464FF0A3
:100AD0008040C463204670BD10B50446002C09DD7B
:100AE000012000F023F8A0B200F044F800B20E4953
:100AF000088017E0002C0CDA4FF0FF3000F016F8F9
:100B0000614288B200F036F8404200B206490880DF
:100B100008E0002000F00AF8002000F02BF8002088
:100B20000149088010BD00001200002010B50446E5
:100B3000002C08DD08210E48FFF7E7FB09210C48CF
:100B4000FFF7DFFB12E0002C08DA08210848FFF766
:100B5000D8FB09210648FFF7D8FB07E00821044825
:100B6000FFF7CFFB09210248FFF7CBFB10BD0000C8
:100B7000000C014070B5054600212846FFF7ACFE89
:100B800004464FF080408463204670BD10B5044693
:100B9000604200B2FFF746FF20B2FFF79DFF10BD95
:100BA00010B50020FFF73EFF0020FFF795FF10BDB6
:100BB0001148006840F001000F49086000BF0E486E
:100BC000006800F002000028F9D00B48406820F0CF
:100BD0000300094948600846806940F001008861C7
:100BE0000648406820F0E0600449486008464068D4
:100BF00040F0007048607047001002400000014063
:100C000070B504461648806944F20501084314494A
:100C100088610B2209211348FFF74FFB04220A21A8
:100C20001048FFF74AFB0CB94FF4E1340E48006856
:100C300000EB5400B0FBF4F50C4805600C200B49A8
:100C4000091D08600020091D0860091D086007488B
:100C5000001D006840F400500449091D086070BD83
:100C600000100240000801401C000020083801402C
:100C700000BF0549096801F080010029F9D0024947
:100C8000091D086070470000003801402DE9F04759
:100C900007460C4615461E46DDE908891AA000F0F5
:100CA00076F834B1384600F07EF818A000F06FF8FE
:100CB00002E019A000F06BF800F09CF81AA000F018
:100CC00066F80DB11AA100E01BA1084600F05FF81C
:100CD0001BA000F05CF80EB115A100E016A10846BB
:100CE00000F055F818A000F052F8404600F036F831
:100CF00017A000F04CF8484600F030F816A000F0BD
:100D000046F8BDE8F087000055533D00636D2C5553
:100D1000535F4F4B3D310000494E56414C49442CE6
:100D200055535F4F4B3D30002C49525F4C3D000006
:100D3000424C4F434B000000434C454152000000E1
:100D40002C49525F523D00002C50574D5F4C3D00E6
:100D50002C50574D5F523D000D0A000010B504465F
:100D6000002C06DD2B20FFF783FFA0B200F01BF85C
:100D70000CE0002C07DA2D20FFF77AFF614288B2E1
:100D800000F011F802E03020FFF772FF10BD00B54F
:100D9000024603E012F8010BFFF76AFF12B1107868
:100DA0000028F7D100BD1CB5024600231AB9302037
:100DB000FFF75EFF1CBD0DE00A20B2FBF0F100FB67
:100DC0001120303019465C1C63B20DF801000A2076
:100DD000B2FBF0F2002A01DD062BEDDB06E0591E26
:100DE00049B20B461DF80100FFF742FF002BF6DC6D
:100DF00000BFDFE710B513A0FFF7C9FF00F074F8DC
:100E0000052818D2DFE800F003070B0F130010A02D
:100E1000FFF7BDFF13E010A0FFF7B9FF0FE011A02F
:100E2000FFF7B5FF0BE012A0FFF7B1FF07E014A03A
:100E3000FFF7ADFF03E014A0FFF7A9FF00BF00BF5D
:100E400010BD00002C55535F4552523D000000007C
:100E50004E4F4E450000000049444C455F4849470D
:100E600048000000574149545F5249534500000073
:100E70004543484F5F535455434B5F4849474800EB
:100E800052414E4745000000554E4B4E4F574E00C5
:100E900010B51048806940F008000E4988610322AF
:100EA0000E210D48FFF709FA08220F210A48FFF723
:100EB00004FA0E210848FFF724FA0F210648FFF72D
:100EC00020FA002005490870054908700549087096
:100ED00010BD000000100240000C01401400002072
:100EE000150000201600002001480078704700001F
:100EF0001500002001480078704700001400002011
:100F000010B500F01DF80446022C0ADBB4F5967FFC
:100F100007DC0120084908700020084908702046B5
:100F200010BD0020044908700448007810B904205E
:100F3000024908700020F3E714000020150000208B
:100F400070B500F071F84FF47A71002000F052F89B
:100F500020B9012023490870002070BDFFF766F911
:100F6000214908800120214908700E212048FFF7FF
:100F7000C8F90220FFF794F90E211D48FFF7C5F9C3
:100F80000C20FFF78DF90E211948FFF7BAF947F247
:100F90003051012000F02EF820B9022011490870CC
:100FA0000020DAE7FFF742F904460CE0FFF73EF9CC
:100FB000001B80B247F23051884204DD032009490A
:100FC00008700020C9E70F210948FFF790F90128B0
:100FD000ECD0FFF72BF9001B85B23A20B5FBF0F0FF
:100FE000BBE70000150000201800002016000020BC
:100FF000000C014070B504460D46FFF717F9064690
:1010000007E0FFF713F9801B80B2A84201DB002044
:1010100070BD0F210348FFF76AF9A042F1D101200A
:10102000F6E70000000C014010B50748007850B109
:1010300000BFFFF7FBF805490988401A80B24EF659
:1010400060218842F5DB10BD16000020180000204A
:10105000FFF7F2F8FFF764FCFFF71AFFFFF75AF902
:101060004FF4E130FFF7CCFD06A0FFF790FEFFF74D
:1010700069FA4FF4FA70FFF707F901E0FFF7D0FBC8
:10108000FCE700004D617A65526F626F74207374E3
:10109000617475733A2055532C2055535F4F4B2C78
:1010A0002055535F4552522C2049525F4C2C204909
:1010B000525F522C2050574D5F4C2C2050574D5FA3
:1010C000520D0A00E410000800000020200000007B
:1010D000280100080411000820000020600600001C
:1010E00044010008000000000000000000000000B3
:1010F00000000000000000000000000000000000F0
:0411000000127A005F
:040000050800018965
:00000001FF
