:020000040800F2
:100000008006002089010008910100089101000884
:100010009101000891010008910100080000000012
:100020000000000000000000000000009101000836
:1000300091010008000000009101000891010008F2
:100040009101000891010008910100089101000848
:100050009101000891010008910100089101000838
:100060009101000891010008910100089101000828
:100070009101000891010008910100089101000818
:100080009101000891010008910100089101000808
:1000900091010008910100089101000891010008F8
:1000A00091010008910100089101000891010008E8
:1000B00091010008910100089101000891010008D8
:1000C00091010008910100089101000891010008C8
:1000D00091010008910100089101000891010008B8
:1000E00091010008910100089101000800F002F858
:1000F00000F03AF80AA090E8000C82448344AAF188
:100100000107DA4501D100F02FF8AFF2090EBAE885
:100110000F0013F0010F18BFFB1A43F0010318473B
:100120000410000024100000103A24BF78C878C1E1
:10013000FAD8520724BF30C830C144BF04680C60ED
:10014000704700000023002400250026103A28BF35
:1001500078C1FBD8520728BF30C148BF0B60704739
:100160001FB51FBD10B510BD00F025F81146FFF7F3
:10017000F7FF00F093FF00F043F803B4FFF7F2FF3E
:1001800003BC00F04BF8000000F01CFDFFF7AEBF11
:10019000FEE7000002480349034A044B7047000091
:1001A00080000020800600208002002080020020C5
:1001B000704770477047754600F02CF8AE46050052
:1001C0006946534620F00700854618B020B5FFF772
:1001D000E1FFBDE820404FF000064FF000074FF070
:1001E00000084FF0000B21F00701AC46ACE8C00955
:1001F000ACE8C009ACE8C009ACE8C0098D4670475E
:1002000010B50446AFF300802046BDE81040FFF76C
:10021000B4BF0000004870471C00002001491820AE
:10022000ABBEFEE7260002007047000001480068F0
:1002300080B27047240400400F48C06940F00200BB
:100240000D49C8610D4800680D49B0FBF1F0401E32
:1002500080B20C4908604FF6FF70091D086000204D
:100260000849091F0860012006491439086005493A
:100270002839086070470000001002401800002074
:1002800040420F002804004000B5034603E04FF44D
:100290007A7000F005F8181EA3F10103F7D100BD34
:1002A00000B50146FFF7C2FF024600BFFFF7BEFFE1
:1002B000801A80B28842F9DB00BD70B5034614464F
:1002C000082903DA18468D062A0E04E0181DA1F14C
:1002D0000805AD062A0E05680F269640B543056051
:1002E000056804F00F0696403543056070BD024670
:1002F000906801238B40184008B10120704700200E
:10030000FCE701228A404261704701228A40026173
:100310007047000010B50C48806940F004000A499D
:10032000886108220C210948FFF7C7FF0C21074804
:10033000FFF7EBFF08220B210448FFF7BEFF0B215C
:100340000248FFF7E2FF10BD001002400008014024
:1003500010B50C21014800F003F810BD0008014061
:100360002DE9F04106460F46002500240EE03946EF
:100370003046FFF7BCFF8046B8F1000F01D1681C82
:10038000C5B20320FFF780FF601CC4B2032CEEDB74
:10039000022D02DB0120BDE8F0810020FBE7000018
:1003A00010B50B210148FFF7DBFF10BD000801402D
:1003B00002468A4202DB501A80B27047881A80B225
:1003C000FBE710B5044606E00A20FFF75DFF0A20B0
:1003D00000F082FA0A3C0A2CF6D22CB12046FFF734
:1003E00053FFA0B200F078FA10BD000010B504462B
:1003F00009A000F09DF94FF4167000F08FFA204626
:10040000FFF7DFFF08A000F093F900F0D3FB5020C6
:10041000FFF7D7FF10BD0000464F52574152445FCF
:10042000535445500000000053544F50000000004A
:1004300010B500200549087005A000F079F900F01A
:10044000B9FB4FF496700449088010BD0C000020E1
:1004500053544F5000000000000000201FB5044618
:100460000CA000F065F900F0A5FB7820FFF7A9FFCC
:10047000204600F028F8684600F030F8DDE9000179
:10048000CDE9020102A9002000F07EF808B100F0D9
:100490000BF81FBD53544F505F4245464F52455FC6
:1004A0004C454654000000001CB5684600F016F8A4
:1004B0009DF8020030B1BDF80000122802DDDC20FA
:1004C000FFF794FF1CBD10B50446A07828B1208822
:1004D0000A2802DD7820FFF789FF10BD1CB504460D
:1004E00000F0E2FCADF8000000F0D8FC8DF802004E
:1004F00000F0A2FC8DF80300FFF72AFF8DF804003E
:10050000FFF74EFF8DF805000A4800990160BDF81D
:100510000410818008480088B0F5967F04D300F06D
:10052000E7F800200449088000982060BDF8040026
:10053000A0801CBD02000020000000201FB5044662
:100540000CA000F0F5F800F035FB7820FFF739FF3C
:100550002046FFF7B8FF6846FFF7C0FFDDE900015E
:10056000CDE9020102A9012000F00EF808B1FFF761
:100570009BFF1FBD53544F505F4245464F52455F4E
:1005800052494748540000002DE9FF4704460E46F3
:100590004FF000090025A84600276CE0012C07D188
:1005A0003CA000F0C5F84FF4B47000F0F9FA0AE08E
:1005B0000CB93DA100E040A1084600F0B9F84FF4A5
:1005C000B47000F0E3FA2320FFF7FBFE00F0F2FA2C
:1005D0001E20FFF7F6FE6846FFF780FFDDE9000109
:1005E000CDE902019DF80A0058B99DF80B000528D5
:1005F00007D008F1010000F0FF08B8F1020F02D3A4
:100600003BE04FF0000802A9304600F027F908B19E
:100610004FF00109B9F1000F29D002A9204600F0DE
:100620003CF920B3012512E01E20FFF7CAFE684600
:10063000FFF754FFDDE90001CDE9020102A92046E0
:1006400000F02BF908B9002503E0681CC5B2022DA3
:10065000EAD300BF022D0AD31BA000F069F800F016
:10066000A9FA00F045F8012004B0BDE8F08700F0D9
:100670003FF8781CC7B23C2F90D300BF16A000F003
:1006800057F800F097FA01201849087000F030F888
:100690000020E9E752494748545F5455524E5F43A2
:1006A00052454550000000004C4546545F54555299
:1006B0004E5F4352454550004241434B5F545552B3
:1006C0004E5F4352454550005455524E5F414C4990
:1006D000474E4544000000005455524E5F46454584
:1006E000444241434B5F4641494C00000C0000200E
:1006F0007FB500F023F9044600F01AF905460A49CF
:10070000C87800F05BFC0646084801680648407956
:10071000054ACDE90154039100901379917810882E
:10072000324600F0BDFA7FBD020000200800002024
:1007300008B1014908607047080000201CB56846F0
:10074000FFF7CCFE9DF8020028B1BDF8000012288A
:1007500001DD012000E0002004462148007840B17E
:1007600020A0FFF7E5FF00F025FA6420FFF729FE3F
:100770001CBD9DF8020040B91FA0FFF7D9FF00F093
:1007800019FA6420FFF71DFEF2E79DF8040018B97E
:100790006846FFF763FE20E0B4B1BDF800001C28F6
:1007A00007DA19A0FFF7C4FF4FF4D27000F0B6F8D3
:1007B00006E019A0FFF7BCFF4FF4167000F0AEF88A
:1007C0002320FFF7FEFD08E09DF8050018B96846F4
:1007D000FFF7B4FE01E000F023F800BFC8E7000017
:1007E0000C0000205455524E5F464545444241435B
:1007F0004B5F4641494C000055535F4641554C54B0
:100800005F53544F50000000464F52574152445FCF
:10081000534C4F5700000000464F5257415244007E
:100820001CB509A0FFF784FF00F0C4F97820FFF79A
:10083000C8FD6846FFF752FE69460220FFF7A4FE96
:1008400008B1FFF731FE1CBD53544F505F4245467F
:100850004F52455F4241434B0000000070B50446D3
:100860000D4620792979884207D1607969798842D3
:1008700003D1A078A978884201D0012070BDA0786A
:1008800048B1A87838B129882088FFF791FD082859
:1008900001D30120F2E70020F0E70246887810B18A
:1008A0000888122802DCC878052801D1012000E060
:1008B000002003460BB9002070470AB94879FBE7CE
:1008C000012A01D10879F7E7087908B9487908B110
:1008D0000120F1E70020EFE710B504460748008843
:1008E00020440649088008460088B0F5967F04D366
:1008F000FFF7FEFE00200149088010BD0000002027
:1009000070B504460D4666190CB9002070BD002E66
:1009100000DA0026B0B200F07BF8F7E710B5044625
:1009200020B200F07FF820B200F0D6F810BD000031
:100930000148B0F9000070470E0000200148B0F9EE
:10094000000070471000002010B52C48806940F06E
:100950000D002A4988610846C06940F00100C8615D
:10096000032206212648FFF7A8FC0322072124487A
:10097000FFF7A3FC032208212148FFF79EFC032276
:1009800009211F48FFF799FC0B2201211D48FFF7A1
:1009900094FC0B2202211B48FFF78FFC1A480068C9
:1009A0001A49B0FBF1F0401E80B20906886240F29D
:1009B000E730C8620846806920F4E0408861084654
:1009C000806940F4D04088610846C06920F070001A
:1009D000C8610846C06940F06800C8610846006AFE
:1009E00040F48870086200208863C8630120486171
:1009F0008120086000F0DEF810BD00000010024009
:100A0000000C0140000801401800002040420F0087
:100A10000146B1F57A7F02DD4FF47A7070470846DF
:100A2000FCE7000010B50446002C09DD012000F0B1
:100A300023F8A0B200F044F800B20E49088017E095
:100A4000002C0CDA4FF0FF3000F016F8614288B24B
:100A500000F036F8404200B20649088008E0002065
:100A600000F00AF8002000F02BF80020014908806F
:100A700010BD00000E00002010B50446002C08DD5B
:100A800006210E48FFF741FC07210C48FFF739FC0F
:100A900012E0002C08DA06210848FFF732FC072193
:100AA0000648FFF732FC07E006210448FFF729FC5F
:100AB00007210248FFF725FC10BD0000000C014093
:100AC00070B5054600212846FFF71AFF04464FF08F
:100AD0008040C463204670BD10B50446002C09DD7B
:100AE000012000F023F8A0B200F044F800B20E4953
:100AF000088017E0002C0CDA4FF0FF3000F016F8F9
:100B0000614288B200F036F8404200B206490880DF
:100B100008E0002000F00AF8002000F02BF8002088
:100B20000149088010BD00001000002010B50446E7
:100B3000002C08DD08210E48FFF7E7FB09210C48CF
:100B4000FFF7DFFB12E0002C08DA08210848FFF766
:100B5000D8FB09210648FFF7D8FB07E00821044825
:100B6000FFF7CFFB09210248FFF7CBFB10BD0000C8
:100B7000000C014070B5054600212846FFF7C0FE75
:100B800004464FF080408463204670BD10B5044693
:100B9000604200B2FFF746FF20B2FFF79DFF10BD95
:100BA00010B5044620B2FFF73DFF604200B2FFF7E8
:100BB00093FF10BD10B50020FFF734FF0020FFF7B2
:100BC0008BFF10BD1148006840F001000F4908601C
:100BD00000BF0E48006800F002000028F9D00B4862
:100BE000406820F00300094948600846806940F0E9
:100BF000010088610648406820F0E06004494860D0
:100C00000846406840F0007048607047001002409D
:100C10000000014070B504461648806944F20501A1
:100C20000843144988610B2209211348FFF745FB4B
:100C300004220A211048FFF740FB0CB94FF4E134BD
:100C40000E48006800EB5400B0FBF4F50C4805605A
:100C50000C200B49091D08600020091D0860091DB2
:100C600008600748001D006840F400500449091D51
:100C7000086070BD0010024000080140180000200C
:100C80000838014000BF0549096801F080010029CA
:100C9000F9D00249091D0860704700000038014082
:100CA0002DE9F05F07460C4615461E46DDE90CAB04
:100CB000DDE90A8920A000F08CF834B1384600F054
:100CC00094F81EA000F085F802E01FA000F081F863
:100CD00021A000F07EF8284600F07BF821A000F06B
:100CE00078F80EB121A100E022A1084600F071F8C9
:100CF00022A000F06EF8B8F1000F01D01BA100E0B7
:100D00001CA1084600F065F81EA000F062F84846F5
:100D100000F046F81DA000F05CF8504600F040F8E6
:100D20001CA000F056F8584600F053F81BA000F045
:100D300050F8BDE8F09F000055533D00636D2C5501
:100D4000535F4F4B3D310000494E56414C49442CB6
:100D500055535F4F4B3D30002C55535F4552523D2C
:100D6000000000002C49525F4C3D0000424C4F43B4
:100D70004B000000434C4541520000002C49525F9B
:100D8000523D00002C50574D5F4C3D002C50574DAC
:100D90005F523D002C4143543D0000000D0A00000D
:100DA00010B50446002C06DD2B20FFF76BFFA0B228
:100DB00000F01BF80CE0002C07DA2D20FFF762FF93
:100DC000614288B200F011F802E03020FFF75AFFCC
:100DD00010BD00B5024603E012F8010BFFF752FF09
:100DE00012B110780028F7D100BD1CB502460023CF
:100DF0001AB93020FFF746FF1CBD0DE00A20B2FBF8
:100E0000F0F100FB1120303019465C1C63B20DF884
:100E100001000A20B2FBF0F2002A01DD062BEDDB17
:100E200006E0591E49B20B461DF80100FFF72AFFE4
:100E3000002BF6DC00BFDFE70148007870470000B8
:100E40001600002010B51048806940F008000E49D7
:100E5000886103220E210D48FFF72FFA08220F2187
:100E60000A48FFF72AFA0E210848FFF74AFA0F212D
:100E70000648FFF746FA0020054908700549087042
:100E800002200549087010BD00100240000C01400E
:100E900012000020130000201600002001480078F6
:100EA000704700001200002070B5002511E000F02E
:100EB0001BF80446022C0ADBB4F5967F07DC012000
:100EC00007490870002007490870204670BD681C5B
:100ED000C5B2032DEBD300200149087000BFF5E730
:100EE000120000201600002070B500F0C3F84FF487
:100EF0007A71002000F0A4F820B901202B49087075
:100F0000002070BDFFF792F9294908800120294986
:100F100008700E212848FFF7F4F90220FFF7C0F906
:100F20000E212548FFF7F1F90C20FFF7B9F90E2142
:100F30002148FFF7E6F947F23051012000F080F830
:100F400020B90220194908700020DAE7FFF76EF98E
:100F500004460CE0FFF76AF9001B80B247F23051FB
:100F6000884204DD0320114908700020C9E70F21E1
:100F70001148FFF7BCF90128ECD0FFF757F9001B27
:100F800086B23A20B6FBF0F5022D03DA04200749B9
:100F9000087009E0B5F5967F03DD05200349087068
:100FA00002E00020014908702846AAE71600002048
:100FB0001400002013000020000C01400146062907
:100FC00010D2DFE801F0030507090B0D06A07047FA
:100FD00007A0FCE70AA0FAE70DA0F8E711A0F6E7E2
:100FE00013A0F4E714A0F2E74E4F4E4500000000B6
:100FF0004543484F5F49444C455F484947480000D6
:101000004E4F5F4543484F5F524953450000000033
:101010004543484F5F484947485F54494D454F5500
:1010200054000000544F4F5F434C4F5345000000A5
:10103000544F4F5F46415200554E4B4E4F574E0056
:1010400070B504460D46FFF7F1F8064607E0FFF7D6
:10105000EDF8801B80B2A84201DB002070BD0F219B
:101060000348FFF744F9A042F1D10120F6E7000060
:10107000000C014010B50748007850B100BFFFF7E1
:10108000D5F805490988401A80B24EF66021884299
:10109000F5DB10BD1300002014000020FFF7CCF892
:1010A000FFF752FCFFF7CEFEFFF734F94FF4E130C3
:1010B000FFF7B0FD0648FFF78CFEFFF7B9F94FF4D4
:1010C000FA70FFF7E1F801E0FFF738FBFCE70000FA
:1010D000D41000084D617A65526F626F742073748A
:1010E000617475733A2055532C2055535F4F4B2C28
:1010F0002055535F4552522C2049525F4C2C2049B9
:10110000525F522C2050574D5F4C2C2050574D5F52
:10111000522C204143540D0A00000000494E49540E
:101120000000000044110008000000201C00000026
:1011300028010008601100081C000020640600005F
:101140004401000800000000000200001C1100081B
:1011500000000000000000000000020000127A0001
:040000050800018965
:00000001FF
